:020000040000fa
:10000000f07f0020b5590000fd5a0000055b00009c
:1000100000000000000000000000000000000000e0
:100020000000000000000000000000002b54000051
:1000300000000000000000001550000067500000a4
:100040002b5400002b5400002b5400002b540000b4
:100050002b5400002b5400002b5400002b540000a4
:100060002b5400002b5400002b5400002b54000094
:100070002b5400002b5400002b5400002b54000084
:100080002b5400002b5400002b5400002b54000074
:100090002b54000000000000000000002b54000062
:1000a0002b5400002b5400002b5400002b54000054
:020000040000fa
:1000b000f8b5c046f8bc08bc9e467047315a0000ef
:1000c000f8b5c046f8bc08bc9e467047095a000007
:020000040000fa
:1000d00090b58bb004aff860b9607a603b607b6824
:1000e0009b00180003f07ef903003b613b69002b85
:1000f00016d0482003f076f903007b617b69002b62
:1001000009d07b6948220021180005f071fd7b6948
:100110003a691a6306e03b69180003f057fa01e0f8
:1001200000237b617b69002b0ed03c687a68b9683c
:10013000f868002303937b690293fb6a0193bb6a0f
:100140000093230000f02bf87b691800bd4607b030
:1001500090bd90b589b002aff860b9607a603b603d
:100160003c687a68b968f868fb6a0193bb6a0093d7
:100170002300fff7adff03003b613b69002b06d076
:100180003b69180000f082f801237b6102e0012343
:100190005b427b617b691800bd4607b090bd80b5ae
:1001a00086b000aff860b9607a603b60bb6a1a6bda
:1001b0007b6835498c4663449b00d3183b613b699f
:1001c000072293433b613b690722134001d072b67b
:1001d000fee7bb68002b1fd000237b6113e0ba68e9
:1001e0007b69d3181878ba6a34217b69d3185b18f5
:1001f000021c1a70ba687b69d3181b78002b06d0d2
:100200007b6901337b617b69092be8d900e0c0463b
:10021000bb6a3d22002199543b6a082b01d972b672
:10022000fee73b6a082b01d908233b62bb6a3a6aa6
:10023000da62bb6a3a6a1a64bb6a0433180005f0d2
:1002400069f8bb6a1833180005f064f8bb6aba6a2b
:100250001a613b6a0922d21abb6a9a61bb6aba6afe
:100260005a623a68f9683b69180004f001fe02001e
:10027000bb6a1a607b6a002b02d07b6aba6a1a607a
:10028000c046bd4606b080bdffffff3f80b584b0cd
:1002900000af786004f08afe3c4b1b685a1c3b4b55
:1002a0001a603b4b1b68002b09d1394b7a681a60e6
:1002b000364b1b68012b10d100f0affe0de0354b23
:1002c0001b68002b09d1324b1b68da6a7b68db6a3a
:1002d0009a4202d82e4b7a681a602f4b1b685a1c20
:1002e0002d4b1a607b68da6a2c4b1b689a4203d943
:1002f0007b68da6a294b1a607b68da6a284913003e
:10030000db009b1a9b00cb1804331b68fb607b68e7
:10031000fa689a60fb689a687b68da60fb689b6899
:100320007a6804325a607b681a1dfb689a607b68a1
:10033000da6a1300db009b1a9b00194a9a187b6843
:100340005a617b68da6a16491300db009b1a9b002e
:1003500059587b68da6a481c11491300db009b1a64
:100360009b00585004f034fe0a4b1b68002b08d049
:10037000074b1b68da6a7b68db6a9a4201d204f099
:1003800005fec046bd4604b080bdc04678110020c1
:100390001c100020841100209411002080110020e6
:1003a0002010002080b586b000af7860396000234f
:1003b0007b617b68002b01d172b6fee73b68002ba6
:1003c00001d172b6fee700f0f5f8224b1b683b61e5
:1003d000214b1b68012b01d072b6fee77b681b68be
:1003e0003a68d318fb607b681b683a699a420bd263
:1003f0007b681b68fa689a4211d2fa683b699a4294
:100400000dd901237b610ae07b681b68fa689a4278
:1004100003d3fa683b699a4201d901237b617b6867
:10042000fa681a607b69002b06d0fa683b69d31a18
:100430000021180001f046f800f0c8f80300bb6086
:10044000bb68002b01d104f0a1fd7b691800bd46fb
:1004500006b080bd7c110020a011002080b584b0c2
:1004600000af78600023fb607b68002b10d000f0a9
:10047000a1f80c4b1b68012b01d072b6fee77b681c
:100480000021180001f01ef800f0a0f80300fb6046
:10049000fb68002b01d104f079fdc046bd4604b0d5
:1004a00080bdc046a011002080b58ab002af0123f4
:1004b000fb6100233b6100237b6111e01d4a7b69e6
:1004c000d31819783a1d7b69d3180a1c1a703a1d83
:1004d0007b69d3181b78002b06d07b6901337b61c5
:1004e0007b69092beadd00e0c0460023bb6116e012
:1004f000114b3b61bb699a00104bd318391d386909
:1005000001930023009300238022fff722fe0300c3
:10051000fb61fb69002b06d0bb690133bb61bb6982
:10052000002be5dd00e0c046fb691800bd4608b0c1
:1005300080bdc046684e00000d1000009c110020d8
:1005400080b582b000affff7afff03007b607b6830
:10055000012b0dd172b60c4b012252421a600b4b8b
:1005600001221a600a4b00221a6004f0dcfc04e04d
:100570007b68013301d172b6fee7064b1b68c046ab
:10058000bd4602b080bdc0469811002084110020f5
:100590007c1100204012002080b500af72b6044be1
:1005a00000221a6004f0e2fcc046bd4680bdc04691
:1005b0008411002080b500af034b1b685a1c024b0e
:1005c0001a60c046bd4680bda011002080b588b02d
:1005d00000af0023fb610023bb6104f0e7fc0023b4
:1005e0003b616c4b1b68002b01d172b6fee7694b77
:1005f0001b685a1e674b1a60664b1b68002b00d0a5
:10060000c1e0654b1b68002b00d1bce08de0634b63
:10061000db68db68fb61fb699b6afb60fb69db698c
:10062000fa69126a9a60fb691b6afa69d2695a60b0
:10063000fb685a68fb6918339a4203d1fb691a6a4e
:10064000fb685a60fb6900229a62fb681b685a1ead
:10065000fb681a60fb695b69bb60fb699b68fa69b0
:10066000d2689a60fb69db68fa6992685a60bb6875
:100670005a68fb6904339a4203d1fb69da68bb68a4
:100680005a60fb6900225a61bb681b685a1ebb682e
:100690001a60fb69da6a424b1b689a4203d9fb690c
:1006a000da6a3f4b1a60fb69da6a3e491300db00e5
:1006b0009b1a9b00cb1804331b687b60fb697a682c
:1006c0009a607b689a68fb69da607b689b68fa6964
:1006d00004325a60fb691a1d7b689a60fb69da6a0a
:1006e0001300db009b1a9b002e4a9a18fb695a6183
:1006f000fb69da6a2b491300db009b1a9b005958ef
:10070000fb69da6a481c27491300db009b1a9b002f
:100710005850fb69da6a244b1b68db6a9a4204d999
:10072000224b3a6992000121d1501c4b1b68002bcf
:1007300000d06ce7fb69002b01d000f0acfc1c4b37
:100740001b687b617b69002b11d000f099f8031eb8
:1007500004d0164b3a6992000121d1507b69013bcc
:100760007b617b69002bf0d1114b00221a600f4b8b
:100770003a699200d358002b05d00123bb610a4b84
:100780001b6804f003fc04f023fcbb691800bd46a1
:1007900008b080bda0110020781100205c1100205d
:1007a00080110020201000201c1000208c1100203f
:1007b0008811002080b582b000af044b1b687b60bd
:1007c0007b681800bd4602b080bdc0467c11002089
:1007d00080b582b000af00237b60044b1b683b6098
:1007e0003b681800bd4602b080bdc0467c110020a9
:1007f00080b500af024b1b681800bd4680bdc046e7
:100800007811002080b584b000af78607b68002b41
:1008100002d1084b1b6800e07b68fb60fb68002b83
:1008200001d172b6fee7fb6834331800bd4604b050
:1008300080bdc0461c10002080b584b000af786039
:100840000d4b1b68002b01d072b6fee7fff7b2fe1e
:1008500004f0acfb094b1a687b68d218074b1a608e
:1008600004f0b6fbfff7b2fe0300fb60fb68180064
:10087000bd4604b080bdc046a011002088110020f4
:1008800080b588b000af0023fb61794b1b68002b5b
:1008900000d0e2e0774b1b680133bb61754bba694e
:1008a0001a60bb69002b17d1734b1b681b68002ba8
:1008b00001d072b6fee7704b1b687b616f4b1a6804
:1008c0006d4b1a606d4b7a691a606d4b1b685a1c30
:1008d0006b4b1a6000f0dffb6a4b1b68ba699a42e7
:1008e00000d2a6e0644b1b681b68002b04d1654b4b
:1008f000012252421a609ce05f4b1b68db68db6898
:100900003b613b695b68fb60ba69fb689a4203d252
:100910005c4bfa681a608ce03b695b69bb603b69c1
:100920009b683a69d2689a603b69db683a69926869
:100930005a60bb685a683b6904339a4203d13b69e9
:10094000da68bb685a603b6900225a61bb681b6861
:100950005a1ebb681a603b699b6a002b1ed03b691c
:100960009b6a7b603b69db693a69126a9a603b6902
:100970001b6a3a69d2695a607b685a683b691833c6
:100980009a4203d13b691a6a7b685a603b6900222c
:100990009a627b681b685a1e7b681a603b69da6a38
:1009a000394b1b689a4203d93b69da6a364b1a60a5
:1009b0003b69da6a35491300db009b1a9b00cb18b0
:1009c00004331b683b603b693a689a603b689a68ed
:1009d0003b69da603b689b683a6904325a603b695c
:1009e0001a1d3b689a603b69da6a1300db009b1aa8
:1009f0009b00264a9a183b695a613b69da6a234987
:100a00001300db009b1a9b0059583b69da6a481cab
:100a10001e491300db009b1a9b0058503b69da6aa1
:100a20001b4b1b68db6a9a4200d85be70123fb6122
:100a300058e7174b1b68da6a14491300db009b1a4e
:100a40009b005b58012b01d90123fb61114b1b68f3
:100a5000002b07d00123fb6104e00f4b1b685a1cdd
:100a60000d4b1a60fb691800bd4608b080bdc0463a
:100a7000a01100207c1100205411002058110020ea
:100a800090110020981100208011002020100020db
:100a90001c1000208c1100208811002080b582b02d
:100aa00000af224b1b68002b03d0214b01221a60a0
:100ab00038e01f4b00221a601e4b1b687b6007e06a
:100ac0007b68002b01d172b6fee77b68013b7b603f
:100ad00019497a681300db009b1a9b005b58002bb6
:100ae000eed07a681300db009b1a9b00124a9b1819
:100af0003b603b685b685a683b685a603b685a6871
:100b00003b6808339a4203d13b68da683b685a6015
:100b10003b685b68da68094b1a60064b7a681a60b2
:100b2000064b1b68c046bd4602b080bda011002028
:100b30008c11002080110020201000201c100020ab
:100b400080b582b000af786039607b68002b01d13e
:100b500072b6fee7084b1b6818331a007b68110059
:100b6000180004f004fc3b680121180000f0aafc06
:100b7000c046bd4602b080bd1c10002080b586b0c6
:100b800000aff860b9607a60fb68002b01d172b6e3
:100b9000fee71b4b1b68002b01d172b6fee7194b19
:100ba0001b68ba68802109060a439a61fb685b6882
:100bb0007b61144b1b687a69da61124b1b687a6996
:100bc00092681a620f4b1a687b699b6818325a60e8
:100bd0000c4b1b6818331a007b699a60094b1b6821
:100be000fa689a62fb681b685a1cfb681a607b688b
:100bf0000121180000f066fcc046bd4606b080bd6d
:100c0000a01100201c10002080b588b000af7860d3
:100c10007b68db68db68bb61bb69002b01d172b606
:100c2000fee7bb699b6a7b61bb69db69ba69126ad3
:100c30009a60bb691b6aba69d2695a607b695a6853
:100c4000bb6918339a4203d1bb691a6a7b695a603f
:100c5000bb6900229a627b691b685a1e7b691a6015
:100c6000494b1b68002b5fd1bb695b693b61bb696a
:100c70009b68ba69d2689a60bb69db68ba69926896
:100c80005a603b695a68bb6904339a4203d1bb6915
:100c9000da683b695a60bb6900225a613b691b688c
:100ca0005a1e3b691a60bb69da6a384b1b689a4264
:100cb00003d9bb69da6a354b1a60bb69da6a344911
:100cc0001300db009b1a9b00cb1804331b68fb60ee
:100cd000bb69fa689a60fb689a68bb69da60fb686e
:100ce0009b68ba6904325a60bb691a1dfb689a6036
:100cf000bb69da6a1300db009b1a9b00244a9a182e
:100d0000bb695a61bb69da6a21491300db009b1a8f
:100d10009b005958bb69da6a481c1d491300db0067
:100d20009b1a9b0058501be01a4b5b68bb60bb6969
:100d3000ba68da61bb689a68bb691a62bb689b686b
:100d4000ba6918325a60bb6918331a00bb689a60d6
:100d5000bb69104a9a620f4b1b685a1c0d4b1a60f4
:100d6000bb69da6a0c4b1b68db6a9a4205d901231e
:100d7000fb610a4b01221a6001e00023fb61fb6961
:100d80001800bd4608b080bda011002080110020d1
:100d9000201000205c1100201c1000208c1100206d
:100da00080b586b000af786039604f4b1b68002b70
:100db00001d172b6fee73b68802212061a437b68b7
:100dc0001a607b68db687b617b69002b01d172b69e
:100dd000fee77b681b693b617b685b687a689268a9
:100de0009a607b689b687a6852685a603b695b6866
:100df0007a689a4203d17b689a683b695a607b683b
:100e000000221a613b691b685a1e3b691a607b69a4
:100e10005b69fb607b699b687a69d2689a607b69d1
:100e2000db687a6992685a60fb685a687b690433a8
:100e30009a4203d17b69da68fb685a607b690022b9
:100e40005a61fb681b685a1efb681a607b69da6a84
:100e5000264b1b689a4203d97b69da6a234b1a60d6
:100e60007b69da6a22491300db009b1a9b00cb18ce
:100e700004331b68bb607b69ba689a60bb689a6878
:100e80007b69da60bb689b687a6904325a607b6967
:100e90001a1dbb689a607b69da6a1300db009b1a33
:100ea0009b00134a9a187b695a617b69da6a104978
:100eb0001300db009b1a9b0059587b69da6a481cb7
:100ec0000b491300db009b1a9b0058507b69da6ac0
:100ed000084b1b68db6a9a4202d9074b01221a6051
:100ee000c046bd4606b080bda01100208011002084
:100ef000201000201c1000208c11002080b582b032
:100f000000af78607b68002b01d172b6fee704f079
:100f10004df8074b1a687b681a60064b1a687b68a5
:100f20005a6004f055f8c046bd4602b080bdc046c8
:100f3000901100207c11002080b582b000af786055
:100f4000054b1a687b681a60044b1a687b685a6004
:100f5000c046bd4602b080bd901100207c1100202b
:100f600080b586b000af786039607b68002b01d116
:100f700072b6fee73b68002b01d172b6fee704f0c3
:100f800015f81b4b1b683b617b685b683a69d31a99
:100f9000fb607b681a68174b1b689a420ad07b6813
:100fa0005b683a699a4205d301237b613b68002262
:100fb0001a6016e03b681b68fa689a420cd23b68dc
:100fc0001a68fb68d21a3b681a607b681800fff742
:100fd000b3ff00237b6104e03b6800221a60012319
:100fe0007b6103f0f5ff7b691800bd4606b080bd4c
:100ff0007c1100209011002080b500af024b01222f
:101000001a60c046bd4680bd8c11002080b582b0fc
:1010100000af786000f03af8fce780b582b000af2e
:1010200000237b600ce07a681300db009b1a9b00b6
:10103000104a9b18180004f049f97b6801337b6063
:101040007b68082befd90c4b180004f03ff90b4bd1
:10105000180004f03bf90a4b180004f037f9094b6b
:10106000054a1a60084b054a1a60c046bd4602b0e0
:1010700080bdc046201000201c1100203811002027
:101080005c110020541100205811002080b500afe1
:10109000c046bd4680bd80b500af094b1b681b68cc
:1010a000002b04d1074b012252421a6005e0044b89
:1010b0001b68db681a68034b1a60c046bd4680bdda
:1010c000541100209811002080b582b000af044b6d
:1010d0001b687b607b681800bd4602b080bdc046bf
:1010e0001c10002080b584b000af78600023fb6046
:1010f0007b68002b05db7b68002b02dc034b1b6845
:10110000fb60fb681800bd4604b080bd1c100020c9
:1011100080b586b000af78607b683b6100237b615f
:101120007b68002b00d179e03b69da6a3e4b1b6893
:10113000db6a9a4269d23b699b69002b06db3a4b1a
:101140001b68db6a0922d21a3b699a613b695969bb
:101150003b69da6a1300db009b1a9b00334a9b1839
:1011600099424ad13b690433180004f036f92e4bfa
:101170001b68da6a3b69da623b69da6a2c4b1b68e6
:101180009a4203d93b69da6a294b1a603b69da6ae9
:1011900026491300db009b1a9b00cb1804331b6805
:1011a000fb603b69fa689a60fb689a683b69da60a1
:1011b000fb689b683a6904325a603b691a1dfb68f8
:1011c0009a603b69da6a1300db009b1a9b00174a9e
:1011d0009a183b695a613b69da6a14491300db00cb
:1011e0009b1a9b0059583b69da6a481c0f49130047
:1011f000db009b1a9b00585004e00b4b1b68da6a1b
:101200003b69da6201237b6108e03b691a6c064b9b
:101210001b68db6a9a4201d201237b617b6918005b
:10122000bd4606b080bdc0461c1000202010002026
:101230008011002080b586b000af78607b683b618c
:1012400000237b617b68002b6cd0394b1b683a69ab
:101250009a4201d072b6fee73b695b6c002b01d16c
:1012600072b6fee73b695b6c5a1e3b695a643b6988
:10127000da6a3b691b6c9a4254d03b695b6c002b69
:1012800050d13b690433180004f0a7f83b691a6c8d
:101290003b69da623b69db6a0922d21a3b699a61cf
:1012a0003b69da6a234b1b689a4203d93b69da6ac5
:1012b000204b1a603b69da6a1f491300db009b1a56
:1012c0009b00cb1804331b68fb603b69fa689a608b
:1012d000fb689a683b69da60fb689b683a6904328c
:1012e0005a603b691a1dfb689a603b69da6a130011
:1012f000db009b1a9b00104a9a183b695a613b69b4
:10130000da6a0d491300db009b1a9b0059583b69b0
:10131000da6a481c08491300db009b1a9b005850ee
:1013200001237b617b691800bd4606b080bdc046c5
:101330001c100020801100202010002080b588b0f3
:1013400000af786039607b68bb6101237b617b689b
:10135000002b00d180e0bb695b6c002b01d172b621
:10136000fee7bb691b6c3a689a4202d93b68fb6195
:1013700002e0bb691b6cfb61bb69db6afa699a42dc
:101380006ad0bb695b6c7a699a4265d1344b1b6841
:10139000ba699a4201d172b6fee7bb69db6a3b616a
:1013a000bb69fa69da62bb699b69002b04dbfb69e4
:1013b0000922d21abb699a61bb6959693a6913005b
:1013c000db009b1a9b00274a9b18994244d1bb69ba
:1013d0000433180004f001f8bb69da6a224b1b6879
:1013e0009a4203d9bb69da6a1f4b1a60bb69da6a91
:1013f0001c491300db009b1a9b00cb1804331b68ad
:10140000fb60bb69fa689a60fb689a68bb69da603e
:10141000fb689b68ba6904325a60bb691a1dfb6895
:101420009a60bb69da6a1300db009b1a9b000d4ac5
:101430009a18bb695a61bb69da6a0a491300db0072
:101440009b1a9b005958bb69da6a481c054913006e
:10145000db009b1a9b005850c046bd4608b080bdbb
:101460001c100020201000208011002080b582b0c8
:1014700000af084b1b689b697b60064b1b68da6af0
:10148000044b1b6809218a1a9a617b681800bd46c3
:1014900002b080bd1c10002080b582b000af084ba8
:1014a0001b687b607b68002b04d07b685b6c5a1cdc
:1014b0007b685a647b681800bd4602b080bdc04698
:1014c0001c10002080b586b000af786039601c4bde
:1014d0001b687b611b4b1b683b611b4b1b68fb60e4
:1014e0001a4b1b680433180003f077ff7a697b6896
:1014f000d318bb60154b1b68ba685a60ba687b6921
:101500009a4208d2114b1b681a1dfb681100180083
:1015100003f02dff0fe00d4b1b681a1d3b691100f6
:10152000180003f024ff0a4b1b68ba689a4202d2e3
:10153000074bba681a60c046bd4606b080bdc046bb
:101540007c11002054110020581100201c10002094
:101550009811002080b582b000af184b00221a60ad
:10156000174b00221a60174b00221a60164b0022fc
:101570001a60164b00221a60154b00221a600023d5
:101580007b6007e0134b7a6892000021d1507b68a2
:1015900001337b607b68002bf4dd0f4b00221a6067
:1015a0000e4b00221a600e4b00221a600d4b0022d7
:1015b0001a60c046bd4602b080bdc0461c10002067
:1015c000781100207c11002080110020841100205f
:1015d000881100208c11002090110020941100200f
:0815e00098110020a011002069
:020000040000fa
:1015e800b0b584b000af786039600123fb607b68d8
:1015f800bb60bb68002b01d172b6fee7bb68002b4d
:1016080000d16ae0bb68db6c002b66d0bb681a6d42
:10161800bb68db6c0024150c190ca8b2002804d197
:1016280088b2002813d0101c04e089b200290dd11b
:10163800291c181c92b29bb25a4383b289b24b43fd
:10164800120c9b181b149bb2002b00d00124231ee4
:1016580043d103f0a7fcbb681a68bb68d96cbb68a8
:101668001b6d4b43d218bb689a60bb6800229a6412
:10167800bb681a68bb685a60bb681a68bb68db6cd1
:10168800591ebb681b6d4b43d218bb68da60bb6838
:101698005422ff219954bb685522ff2199543b6875
:1016a800002b0dd1bb681b69002b13d0bb6810330e
:1016b8001800fff7a5fa031e0cd003f063fc09e03d
:1016c800bb681033180003f0fdfdbb682c3318000d
:1016d80003f0f8fd03f078fc01e00023fb60fb68f1
:1016e800002b01d172b6fee7fb681800bd4604b0b6
:1016f800b0bdf0b58bb002aff860b960fb1d1a70d1
:101708000023fb61fb68002b47d00020bb68190c45
:10171800bb681e1cfb681b0cfa68151c8ab2002ae1
:1017280005d19ab2002a13d0191c341c03e09bb2cd
:10173800002b0cd12c1cb3b2aab25a43a3b289b263
:101748004b43120c9b181b149bb2002b00d001209a
:10175800031e22d1fb68ba68534359331dd8fb686e
:10176800ba685343bb61bb695833180001f036feb1
:101778000300fb61fb69002b14d0fb697b617b696b
:1017880058337b61fb1d1c787a69b968f868fb6976
:101798000093230000f00bf804e0fb69002b01d153
:1017a80072b6fee7fb691800bd4609b0f0bd80b50a
:1017b80084b000aff860b9607a601a00fb1c1a7038
:1017c800bb68002b03d1bb69ba691a6002e0bb6928
:1017d8007a681a60bb69fa68da64bb69ba681a651c
:1017e800bb6901211800fff7fbfec046bd4604b0e7
:1017f80080bd80b582b000af78607b68002b0ed0ca
:101808007b6800229a607b6800221a607b6800224d
:10181800da60786800230022002100f020f8c04632
:10182800bd4602b080bd80b586b000af0200fb1d8a
:101838001a7001237b6100233b61fb1d1a7839690b
:101848007b691800fff755ff0300fb60fb68180071
:10185800fff7cffffb681800bd4606b080bd80b516
:101868008ab000aff860b9607a603b6000237b62a1
:10187800fb683b623b6a002b01d172b6fee7bb688e
:10188800002b03d13b6a1b6d002b01d1012300e023
:101898000023002b01d172b6fee73b68022b03d16f
:1018a8003b6adb6c012b01d1012300e00023002bf4
:1018b80001d172b6fee703f075fb3b6a9a6c3b6a8e
:1018c800db6c9a4202d33b68022b1ed13a68b96896
:1018d8003b6a180000f0c3fc0300fb613b6adb6a4b
:1018e800002b09d03b6a2c331800fff789f9031e37
:1018f80007d003f047fb04e0fb69002b01d003f09d
:1019080041fb03f061fb01235be07b68002b03d103
:1019180003f05afb002354e07b6a002b06d1142302
:10192800fb181800fff704fb01237b6203f04cfb54
:10193800fef73cfe03f036fb3b6a54229b5c5bb22d
:10194800013303d13b6a5422002199543b6a552242
:101958009b5c5bb2013303d13b6a55220021995449
:1019680003f032fb3a1d1423fb1811001800fff78f
:10197800f3fa031e1ed13b6a180000f08efd031e09
:1019880011d03b6a10337a6811001800fff7d4f8b9
:101998003b6a180000f0f4fcfef714fe031e8ad11f
:1019a80003f0f0fa87e73b6a180000f0e9fcfef75d
:1019b80009fe80e73b6a180000f0e2fcfef702fe31
:1019c80000231800bd460ab080bd90b58bb000afab
:1019d800f860b9607a603b60fb683b623b6a002b49
:1019e80001d172b6fee7bb68002b03d13b6a1b6dc1
:1019f800002b01d1012300e00023002b01d172b696
:101a0800fee73b68022b03d13b6adb6c012b01d15b
:101a1800012300e00023002b01d172b6fee703f09a
:101a2800ebfa0300fb613b6a9a6c3b6adb6c9a42f7
:101a380002d33b68022b43d11b243b193a6a552138
:101a4800525c1a703b6a9b6c7b613a68b9683b6a66
:101a5800180000f004fc3b191b785bb2013311d16c
:101a68003b6adb6a002b28d03b6a2c331800fff74f
:101a7800c7f8031e21d07b68002b1ed07b6801228b
:101a88001a601ae0fef7b0fe03003b611b217b18c9
:101a98001b785bb23a699a420fd97b181b785bb204
:101aa8007f2b01d172b6fee71b23fb181b7801338d
:101ab800dbb259b23b6a5522995401237b6201e09b
:101ac80000237b62fb69180003f09cfa7b6a18000c
:101ad800bd460bb090bd80b588b000af7860396066
:101ae8007b68bb61bb69002b01d172b6fee7bb699d
:101af8001b6d002b01d072b6fee7bb691b68002b7b
:101b080003d1bb699b68002b01d1012300e00023ae
:101b1800002b01d172b6fee703f06efa03007b6179
:101b2800bb699b6c3b61bb69db6c3a699a423ed2ec
:101b38000f203b18ba695521525c1a703b695a1c30
:101b4800bb699a643b181b785bb2013311d1bb693e
:101b5800db6a002b28d0bb692c331800fff750f83c
:101b6800031e21d03b68002b1ed03b6801221a605f
:101b78001ae0fef739fe0300bb600f217b181b78c3
:101b88005bb2ba689a420fd97b181b785bb27f2b7d
:101b980001d172b6fee70f23fb181b780133dbb2c5
:101ba80059b2bb69552299540123fb6101e0002316
:101bb800fb617b69180003f025fafb691800bd4634
:101bc80008b080bd80b58ab000aff860b9607a60af
:101bd80000237b62fb683b623b6a002b01d172b633
:101be800fee7bb68002b03d13b6a1b6d002b01d1bc
:101bf800012300e00023002b01d172b6fee703f0b9
:101c0800d1f93b6a9b6cfb61fb69002b1ad0ba685f
:101c18003b6a1100180000f08dfbfb695a1e3b6af5
:101c28009a643b6a1b69002b08d03b6a1033180082
:101c3800fef7e6ff031e01d003f0a4f903f0c4f990
:101c4800012362e07b68002b03d103f0bdf9002378
:101c58005be07b6a002b06d11423fb181800fff702
:101c680067f901237b6203f0aff9fef79ffc03f0ed
:101c780099f93b6a54229b5c5bb2013303d13b6afe
:101c88005422002199543b6a55229b5c5bb2013374
:101c980003d13b6a55220021995403f095f93a1d66
:101ca8001423fb1811001800fff756f9031e1ed164
:101cb8003b6a180000f0c2fb031e11d03b6a2c33ac
:101cc8007a6811001800fef737ff3b6a180000f029
:101cd80057fbfef777fc031e91d103f053f98ee70b
:101ce8003b6a180000f04cfbfef76cfc87e73b6a88
:101cf800180000f045fbfef765fc3b6a180000f091
:101d08009dfb031e00d17ae700231800bd460ab0e8
:101d180080bd80b58ab000af7860396000237b62ef
:101d28007b68fb6100233b62fb69002b01d172b623
:101d3800fee7fb691b6d002b01d072b6fee703f0ce
:101d480031f9fb699b6cbb61bb69002b1dd0bb697a
:101d58005a1efb699a64fb691b68002b04d1fff7c4
:101d680097fb0200fb699a60fb691b69002b08d08e
:101d7800fb6910331800fef743ff031e01d003f080
:101d880001f903f021f9012386e03b68002b03d118
:101d980003f01af900237fe07b6a002b06d10c239d
:101da800fb181800fff7c4f801237b6203f00cf955
:101db800fef7fcfb03f0f6f8fb6954229b5c5bb270
:101dc800013303d1fb69542200219954fb69552240
:101dd8009b5c5bb2013303d1fb6955220021995406
:101de80003f0f2f83a000c23fb1811001800fff773
:101df800b3f8031e2ed1fb69180000f01ffb031e69
:101e080021d0fb691b68002b0ad103f0cbf8fb69d2
:101e18009b681800fff778f903003b6203f0d4f8d9
:101e2800fb692c333a6811001800fef785fefb6940
:101e3800180000f0a5fafef7c5fb031e00d07ee7e8
:101e480003f0a0f87be7fb69180000f099fafef7a9
:101e5800b9fb74e7fb69180000f092fafef7b2fbd1
:101e6800fb69180000f0eafa031e00d167e73b6a35
:101e7800002b10d003f096f8fb69180000f0d9f990
:101e880003007b61fb699b687a6911001800fff702
:101e980051fa03f099f800231800bd460ab080bd36
:101ea80080b58ab000aff860b9607a6000237b62c1
:101eb800fb683b623b6a002b01d172b6fee7bb6848
:101ec800002b03d13b6a1b6d002b01d1012300e0dd
:101ed8000023002b01d172b6fee703f063f83b6ada
:101ee8009b6cfb61fb69002b1cd03b6adb68bb6108
:101ef800ba683b6a1100180000f01cfa3b6aba691c
:101f0800da603b6adb6a002b08d03b6a2c33180086
:101f1800fef776fe031e01d003f034f803f054f800
:101f2800012362e07b68002b03d103f04df8002306
:101f38005be07b6a002b06d11023fb181800fef724
:101f4800f7ff01237b6203f03ff8fef72ffb03f056
:101f580029f83b6a54229b5c5bb2013303d13b6a8c
:101f68005422002199543b6a55229b5c5bb2013391
:101f780003d13b6a55220021995403f025f83a1df4
:101f88001023fb1811001800fef7e6ff031e1ed1f0
:101f98003b6a180000f052fa031e11d03b6a2c333a
:101fa8007a6811001800fef7c7fd3b6a180000f0b8
:101fb800e7f9fef707fb031e8fd102f0e3ff8ce77a
:101fc8003b6a180000f0dcf9fef7fcfa85e73b6a8b
:101fd800180000f0d5f9fef7f5fa3b6a180000f092
:101fe8002dfa031e00d178e700231800bd460ab079
:101ff80080bd90b58bb000aff860b9607a60fb68bf
:102008003b623b6a002b01d172b6fee7bb68002b2e
:1020180003d13b6a1b6d002b01d1012300e0002393
:10202800002b01d172b6fee702f0e6ff0300fb6168
:102038003b6a9b6cbb61bb69002b44d017243b19de
:102048003a6a5421525c1a70ba683b6a1100180047
:1020580000f070f9bb695a1e3b6a9a643b191b78f9
:102068005bb2013311d13b6a1b69002b28d03b6a54
:1020780010331800fef7c4fd031e21d07b68002b27
:102088001ed07b6801221a601ae0fef7adfb030040
:102098003b6117217b181b785bb23a699a420fd9ca
:1020a8007b181b785bb27f2b01d172b6fee7172332
:1020b800fb181b780133dbb259b23b6a542299549e
:1020c80001237b6201e000237b62fb69180002f0b8
:1020d80099ff7b6a1800bd460bb090bd80b586b0ed
:1020e80000af786039607b683b613b69002b01d1a8
:1020f80072b6fee73b68002b03d13b691b6d002bd2
:1021080001d1012300e00023002b01d172b6fee7c4
:102118003b691b6d002b01d172b6fee702f06cff24
:102128000300fb603b699b6c002b0ed03b69db68ae
:10213800bb603a683b691100180000f0fbf83b6986
:10214800ba68da6001237b6101e000237b61fb68e8
:10215800180002f057ff7b691800bd4606b080bd25
:1021680080b584b000af78607b68002b01d172b66f
:10217800fee702f017ff7b689b6cfb6002f024ff10
:10218800fb681800bd4604b080bd80b584b000afc0
:1021980078607b68fb60fb68002b01d172b6fee7b4
:1021a80002f000fffb68da6cfb689b6cd31abb601b
:1021b80002f00affbb681800bd4604b080bd80b5b8
:1021c80084b000af78607b68fb60fb68002b01d1ae
:1021d80072b6fee7fb689b6cbb60bb681800bd4627
:1021e80004b080bd80b584b000af78607b68fb60c8
:1021f800fb68002b01d172b6fee7fb68180001f0fe
:10220800e1f9c046bd4604b080bd80b582b000afdc
:1022180078607b681b6d1800bd4602b080bd80b534
:1022280082b000af78607b68db6c1800bd4602b0f6
:1022380080bd80b584b000af78607b68db6a002b16
:1022480006d07b689b6b1b680922d31afb6001e0f0
:102258000023fb60fb681800bd4604b080bd80b554
:1022680086b000aff860b9607a6000237b61fb68d4
:102278009b6c3b61fb681b6d002b0ed1fb681b68d8
:10228800002b4ed1fb689b681800fef7cfff0300b8
:102298007b61fb6800229a6043e07b68002b19d1c0
:1022a800fb685868fb681a6dbb68190003f092fc5c
:1022b800fb685a68fb681b6dd218fb685a60fb689c
:1022c8005a68fb689b689a422bd3fb681a68fb68bc
:1022d8005a6026e0fb68d868fb681a6dbb6819006d
:1022e80003f078fcfb68da68fb681b6d5b42d21868
:1022f800fb68da60fb68da68fb681b689a4207d2f9
:10230800fb689a68fb681b6d5b42d218fb68da6051
:102318007b68022b05d13b69002b02d03b69013b4e
:102328003b613b695a1cfb689a647b691800bd468f
:1023380006b080bd80b582b000af786039607b6838
:102348001b6d002b18d07b68da687b681b6dd21870
:102358007b68da607b68da687b689b689a4203d39b
:102368007b681a687b68da607b68d9687b681a6d55
:102378003b68180003f02efcc046bd4602b080bd85
:1023880080b584b000af786002f00cfe0f23fb1814
:102398007a685521525c1a7013e07b68db6a002b5f
:1023a80016d07b682c331800fef72afc031e01d0d8
:1023b800fef71efe0f217b181b78013bdab27b1853
:1023c8001a700f23fb181b785bb2002be5dc00e0ca
:1023d800c0467b685522ff21995402f0f5fd02f0b2
:1023e800e1fd0e23fb187a685421525c1a7013e041
:1023f8007b681b69002b16d07b6810331800fef72a
:10240800fffb031e01d0fef7f3fd0e217b181b789e
:10241800013bdab27b181a700e23fb181b785bb2eb
:10242800002be5dc00e0c0467b685422ff2199546c
:1024380002f0cafdc046bd4604b080bd80b584b078
:1024480000af786002f0aefd7b689b6c002b02d178
:102458000123fb6001e00023fb6002f0b5fdfb688f
:102468001800bd4604b080bd80b584b000af786068
:102478007b68bb60bb68002b01d172b6fee7bb6806
:102488009b6c002b02d10123fb6001e00023fb6061
:10249800fb681800bd4604b080bd80b584b000afad
:1024a800786002f07ffd7b689a6c7b68db6c9a42ef
:1024b80002d10123fb6001e00023fb6002f084fdf0
:1024c800fb681800bd4604b080bd80b584b000af7d
:1024d80078607b68bb60bb68002b01d172b6fee7f1
:1024e800bb689a6cbb68db6c9a4202d10123fb6023
:1024f80001e00023fb60fb681800bd4604b080bd06
:020000040000fa
:1025080080b500af00f0eafb0300044a9446634438
:102518005a425341dbb21800bd4680bdbfda40ffc6
:1025280080b500af3c2000f0adf8c046bd4680bd88
:1025380080b500af084b80225a61222003f032fb9d
:10254800062002f0f5fb044b80229a61222003f05a
:1025580029fbc046bd4680bd0044004180b500afa0
:10256800084b80225a61222003f01cfb042002f051
:10257800dffb044b80229a61222003f013fbc04644
:10258800bd4680bd0044004180b500af084b8022a5
:102598005a61222003f006fb502002f0c9fb044bcd
:1025a80080229a61222003f0fdfac046bd4680bd14
:1025b8000044004180b582b000affb1d00221a70b4
:1025c8000d4b80225a61222003f0ecfa052002f01c
:1025d800affb02f0d5fb03001a00fb1d1a70064b77
:1025e80080229a61222003f0ddfafb1d1b78180077
:1025f800bd4602b080bdc0460044004180b582b0ef
:1026080000af0200fb1d1a70fff7beff0c4b8022c3
:102618005a61222003f0c6fa012002f089fbfb1d53
:102628001b789bb2180002f083fb054b80229a614d
:10263800222003f0b7fac046bd4602b080bdc046ae
:1026480000440041b0b584b000af0200fb1d1a7011
:102658000f257b1900221a707c19fff7abff0300c6
:10266800237028003b183918fa1d097812780a4394
:102678001a703b181b781800fff7c0ffc046bd460c
:1026880004b0b0bdb0b584b000af0200fb1d1a7035
:102698000f257b1900221a707c19fff78bff0300a6
:1026a8002370fb1d1b785bb2db435bb27a1912788f
:1026b80052b213405ab27b191a707b191b78180052
:1026c800fff79cffc046bd4604b0b0bd80b500af63
:1026d800084b80225a61222003f064fa702002f02d
:1026e80027fb044b80229a61222003f05bfac04644
:1026f800bd4680bd0044004180b500af084b802234
:102708005a61222003f04efa802002f011fb044b9c
:1027180080229a61222003f045fac046bd4680bd5a
:102728000044004180b500af00231800bd4680bdbd
:1027380090b585b000af78600f243b1900221a705d
:102748007b68194a934228d8184b80225a61222064
:1027580003f028fa032002f0ebfa3b1d02331b7842
:102768009bb2180002f0e4fa3b1d01331b789bb2c0
:10277800180002f0ddfa3b1d1b789bb2180002f02e
:10278800d7fa02f0fdfa03001a003b191a70074b3a
:1027980080229a61222003f005fa0f23fb181b7888
:1027a8001800bd4605b090bdffff1f000044004162
:1027b80080b582b000af78600a00fb1c1a707b6895
:1027c8001d4a934234d8fff7b3fe1c4b80225a614e
:1027d800222003f0e7f9022002f0aafa3b1d023397
:1027e8001b789bb2180002f0a3fa3b1d01331b783b
:1027f8009bb2180002f09cfa3b1d1b789bb2180094
:1028080002f096fafb1c1b789bb2180002f090fab3
:102818000a4b80229a61222003f0c4f9442003f075
:10282800c1f9fff7c7fe03001a0001231340f5d1d1
:10283800c046bd4602b080bdffff1f0000440041f6
:10284800b0b586b000aff860b960fb1d1a701725e7
:102858007b1900221a70fb68204a934234d8bb685f
:10286800002b31d0fb1d1b78002b2dd01c4b802258
:102878005a61222003f096f9032002f059fa0c2439
:102888003b1902331b789bb2180002f051fa3b192e
:1028980001331b789bb2180002f04afa3b191b78e7
:1028a8009bb2180002f044fafb1d1a78bb681100ad
:1028b800180002f0b5fa7b1901221a70084b802221
:1028c8009a61222003f06ef91723fb181b785a1e11
:1028d8009341dbb21800bd4606b0b0bdffff1f0034
:1028e8000044004190b587b000aff860b960fb1da7
:1028f8001a701723fb1800221a70fb68274a9342a4
:1029080045d839e0fff714fe254b80225a61222072
:1029180003f048f9022002f00bfa0c243b190233a9
:102928001b789bb2180002f003fa3b1901331b789d
:102938009bb2180002f0fcf93b191b789bb21800f7
:1029480002f0f6f9bb681b789bb2180002f0f0f9a8
:10295800134b80229a61222003f024f9c046fff726
:1029680029fe03001a0001231340f8d1fb68013344
:10297800fb60bb680133bb60fb1d1b78fa1d591e49
:102988001170002bbed11723fb1801221a701723d0
:10299800fb181b781800bd4607b090bdffff1f004d
:1029a8000044004190b587b000aff860b960fb1de6
:1029b8001a701723fb1801221a70fb68364a9342d3
:1029c80059d8bb68002b56d0fb1d1b78002b52d062
:1029d800fb1d1b7801221340dbb2002b4bd1fff704
:1029e800a7fd42e02d4b80225a61222003f0daf83d
:1029f800ad2002f09df91722bb181b78002b17d0c9
:102a0800bb1800221a700c243b1902331b789bb2a6
:102a1800180002f08df93b1901331b789bb218009e
:102a280002f086f93b191b789bb2180002f080f976
:102a3800bb680221180002f0d5f9184b80229a6170
:102a4800222003f0aff8442003f0acf8fff7b2fd02
:102a580003001a0001231340f5d1fb1dfa1d12785b
:102a6800023a1a70bb680233bb60fb1d1b78002b4f
:102a7800b8d1fff773fd1723fb181b785a1e934133
:102a8800dbb201225340dbb21a1c01231340dbb234
:102a98001800bd4607b090bdffff1f00004400416d
:102aa80080b582b000af78607b681b4a93422ed80d
:102ab800fff73efd194b80225a61222003f072f87d
:102ac800202002f035f93b1d02331b789bb2180019
:102ad80002f02ef93b1d01331b789bb2180002f05f
:102ae80027f93b1d1b789bb2180002f021f90b4b0c
:102af80080229a61222003f055f8442003f052f80e
:102b0800fff758fd03001a0001231340f5d1c04612
:102b1800bd4602b080bdc046ffff1f000044004113
:102b280080b582b000af78607b681b4a93422ed88c
:102b3800fff7fefc194b80225a61222003f032f87d
:102b4800522002f0f5f83b1d02331b789bb21800a7
:102b580002f0eef83b1d01331b789bb2180002f01f
:102b6800e7f83b1d1b789bb2180002f0e1f80b4b0d
:102b780080229a61222003f015f8442003f012f80d
:102b8800fff718fd03001a0001231340f5d1c046d2
:102b9800bd4602b080bdc046ffff1f000044004193
:102ba80080b582b000af78607b681b4a93422ed80c
:102bb800fff7befc194b80225a61222002f0f2ff77
:102bc800d82002f0b5f83b1d02331b789bb21800e1
:102bd80002f0aef83b1d01331b789bb2180002f0df
:102be800a7f83b1d1b789bb2180002f0a1f80b4b0d
:102bf80080229a61222002f0d5ff442002f0d2ff01
:102c0800fff7d8fc03001a0001231340f5d1c04692
:102c1800bd4602b080bdc046ffff1f000044004112
:102c280080b500affff784fc0d4b80225a6122204b
:102c380002f0b8ffc72002f07bf8094b80229a61a6
:102c4800222002f0afff442002f0acfffff7b2fcf5
:102c580003001a0001231340f5d1c046bd4680bdcc
:102c68000044004190b585b000af0200fb1d1a700a
:102c78000e243b1900221a80174b80225a61222009
:102c880002f090ff902002f053f8002002f050f874
:102c9800002002f04df8fb1d1b789bb2180002f0d3
:102ca80047f802f06df803001a003b19d2b21a7007
:102cb80002f066f803001a003b190133d2b21a7009
:102cc800054b80229a61222002f06cff3b191b8879
:102cd8001800bd4605b090bd0044004180b582b0e3
:102ce80000af00237b60154b80225a61222002f03e
:102cf80059ff9f2002f01cf802f042f803001a0066
:102d08003b1d0233d2b21a7002f03af803001a00df
:102d18003b1d0133d2b21a7002f032f803001a00d8
:102d28003b1dd2b21a70054b80229a61222002f014
:102d380039ff7b681800bd4602b080bd00440041e1
:020000040000fa
:102d480080b582b000af0200fb1d1a70fb1d1b7816
:102d58007f2b0ed8fb1d1b781a001f231340074931
:102d680001229a40130080228b50bff34f8fbff38c
:102d78006f8fc046bd4602b080bdc04600e100e08e
:102d880080b582b000af0200fb1d1a70fb1d1b78d6
:102d98007f2b0ad8fb1d1b781a001f2313400549f7
:102da80001229a40c0235b00ca50c046bd4602b00b
:102db80080bdc04600e100e080b500af2b4b1a6a29
:102dc8002a4b08210a431a62294b2a4a5a80c046cc
:102dd800274b5b78dbb25bb2002bf9db264b1a681a
:102de800254b01210a431a60c046234bdb690122a7
:102df8001340fad1204b14221a601f4b00225a604c
:102e0800c0461d4bdb6904221340fad11a4b9922a4
:102e1800da60194b1a68184b02210a431a60c04637
:102e2800154bdb6902221340fad1134b5b8b9bb223
:102e3800114a10210b439bb25383c0460e4bdb69ea
:102e480004221340fad10c4b80221a750a4b022235
:102e58001a75094b01221a750a20fff791ff0a20fb
:102e6800fff76effc046bd4680bdc0460004004067
:102e7800000c004015420000000c004280b500af75
:102e8800224b5b8b9bb21a008023db00134001d0de
:102e9800032338e01d4b5b8b9bb21a0080239b00f9
:102ea800134001d004232ee0184b5b8b9bb21a0011
:102eb80080235b00134001d0052324e0134b5b8b78
:102ec8009bb21a008023134001d006231be00f4b4e
:102ed8005b8b9bb21a004023134001d0072312e0fa
:102ee8000a4b5b8b9bb21a000223134001d00823c4
:102ef80009e0064b5b8b9bb21a000123134001d0fb
:102f0800092300e000231800bd4680bd000c0042e4
:102f180080b584b000af0200fb1d1a700e23fb18a9
:102f2800012252421a800d23fb1800221a70234beb
:102f380081221a76214bfa1d12785a62c0461f4b1d
:102f4800db6904221340fad1c0461c4b1b7edbb25e
:102f58001a000123134007d10e22bb181b88ba1888
:102f6800591e1180002bf0d1144b5b8b9bb21a00b9
:102f780004231a400d23fb18511e8a411a700f4b67
:102f88005a680e4bc02189020a435a60c0460b4b4f
:102f9800db6904221340fad10d23fb181b785a1e53
:102fa8009341dbb201225340dbb21a1c01231340c8
:102fb800dbb21800bd4604b080bdc046000c00421c
:102fc80080b582b000af0200fb1d1a70fb1d1b7894
:102fd800002b06d00b4b5a680a4b0b490a405a6023
:102fe80006e0084b5a68074b8021c9020a435a6019
:102ff800c046044bdb6904221340fad1c046bd46e3
:1030080002b080bd000c0042fffffbff80b500af9f
:103018000e4b1b7edbb21a000123134006d10b4b6b
:103028001b7edbb21a00022313400cd0074b5a68f0
:10303800064bc02189020a435a60c046034bdb692c
:1030480004221340fad1c046bd4680bd000c0042a0
:1030580080b584b000af0200fb1d1a700e23fb1868
:10306800012252421a801d4b83221a751b4bfa1dee
:1030780012785a62c046194bdb6904221340fad110
:10308800c046164b1b7edbb21a00012313400ed13b
:10309800124b1b7edbb21a000223134007d10e220b
:1030a800bb181b88ba18591e1180002be9d10b4b8d
:1030b8001b7edbb25bb2002b03dafff7dffe0300f7
:1030c80008e0064b5b8b9bb21a00042313405a1e80
:1030d8009341dbb21800bd4604b080bd000c00422d
:1030e80080b582b000afbb1d012252421a801b4b33
:1030f80083221a75194b5a68184b802149020a43d2
:103108005a60c046154b1b7edbb21a0001231340e0
:103118000dd1124b1b7edbb21a000223134006d1dd
:10312800bb1d1b88ba1d591e1180002bead10b4b01
:103138001b7edbb25bb2002b03dafff79ffe0300b6
:1031480008e0064b5b8b9bb21a00042313405a1eff
:103158009341dbb21800bd4602b080bd000c0042ae
:1031680080b584b000af0200fb1d1a700e23fb1857
:10317800012252421a801a4b01221a761849fb1d65
:1031880028221b788b54c046154bdb690422134058
:10319800fad1c046124b1b7edbb21a000123134042
:1031a80007d10e22bb181b88ba18591e1180002b94
:1031b800f0d10b4b1b7edbb25bb2002b03dafff7bf
:1031c8005dfe030008e0064b5b8b9bb21a000423ec
:1031d80013405a1e9341dbb21800bd4604b080bdaf
:1031e800000c004280b584b000af78600e23fb1855
:1031f800012252421a807b68002b22d0144b802275
:103208001a76c046124b1b7edbb21a00022313400b
:1032180007d10e22bb181b88ba18591e1180002b23
:10322800f0d10b4a2823d35cdab27b681a70084bba
:103238001b7edbb25bb2002b05dafff71ffe030033
:1032480002e0002300e001231800bd4604b080bd61
:10325800000c004280b584b000af78600a00fb1c07
:103268001a700e23fb18012252421a807b68002b29
:1032780047d0fb1c1b78002b43d03ae0244b01229b
:103288001a767b685a1c7a60214a19782823d15407
:10329800c0461f4bdb6904221340fad1c0461c4bc1
:1032a8001b7edbb21a000123134007d10e22bb1884
:1032b8001b88ba18591e1180002bf0d1144b1b7ea5
:1032c800dbb25bb2002b06dafff7d8fd03005a1e0b
:1032d8009341dbb218e00e4b5b8b9bb21a000423c0
:1032e800134001d000230fe00e23fb1801225242a5
:1032f8001a80fb1c1b78fa1c591e1170002bbdd1bb
:1033080001e0002300e001231800bd4604b080bda1
:10331800000c004280b584b000af78600a00fb1c46
:103328001a700e23fb18012252421a807b68002b68
:103338004ad0fb1c1b78002b46d03de0264b802250
:103348001a76c046244b1b7edbb21a0002231340b8
:1033580007d10e22bb181b88ba18591e1180002be2
:10336800f0d11d497b685a1c7a6028228a5cd2b247
:103378001a70fb1c1b78002b0cd0174b5a68164b85
:10338800802189020a435a60c046134bdb69042234
:103398001340fad1104b1b7edbb25bb2002b06da6e
:1033a800fff76cfd03005a1e9341dbb20fe00e23ba
:1033b800fb18012252421a80fb1c1b78fa1c591e6a
:1033c8001170002bbad101e0002300e0012318009e
:0c33d800bd4604b080bdc046000c0042a1
:020000040000fa
:1033e40080b588b000af786000237b617b68002bd8
:1033f40021d00823db437a689a421ad808227b68d2
:103404009b187b607b680722134014d07b680722db
:1034140013400822d31a3b613b69db437a689a4222
:1034240004d87a683b69d3187b6004e000237b608e
:1034340001e000237b60fdf7bbf85c4b1b68002bad
:1034440001d100f069f97b68002b00daa0e07b6809
:10345400002b00d19ce0564b1b687a689a4200d935
:1034640096e0544bbb61534b1b68fb61fa69524baa
:103474009a4205d3fa69514b9a4201d8012300e0dc
:103484000023002b15d172b6fee7fb69bb61fb6913
:103494001b68fb61fa69484b9a4205d3fa69474baa
:1034a4009a4201d8012300e00023002b01d172b617
:1034b400fee7fb695b687a689a4203d9fb691b687b
:1034c400002be2d1394b1b68fa699a4260d0bb6980
:1034d4001b6808229b187b617a69374b9a4205d393
:1034e4007a69364b9a4201d8012300e00023002b6d
:1034f40001d172b6fee7fb691a68bb691a60fb6901
:103504005b687a689a4201d972b6fee7fb695a6829
:103514007b68d21a08235b009a4219d9fa697b683e
:10352400d318fb60fb680722134001d072b6fee794
:10353400fb695a687b68d21afb685a60fb697a682f
:103544005a60bb691a68fb681a60bb69fa681a603a
:10355400174b1a68fb695b68d21a154b1a60144b37
:103564001a68174b1b689a4203d2114b1a68144b02
:103574001a60fb695b68802212061a43fb695a6071
:10358400fb6900221a600f4b1b685a1c0d4b1a6012
:10359400fdf71af87b690722134001d072b6fee7e3
:1035a4007b691800bd4608b080bdc04608100020e5
:1035b4000c1000200010002000000020ff0f00204d
:1035c400101000201410002080b584b000af786083
:1035d4007b68fb607b68002b48d008235b42fa6859
:1035e400d318fb60fb68bb60ba68224b9a4205d3d0
:1035f400ba68214b9a4201d8012300e00023002b32
:1036040001d172b6fee7bb685b68002b01db72b6c2
:10361400fee7bb681b68002b01d072b6fee7bb68ef
:103624005b68db0f1a1c01231340dbb2002b1dd097
:10363400bb681b68002b19d1bb685b685b005a0828
:10364400bb685a60fcf7b4ffbb685a680b4b1b6835
:10365400d2180a4b1a60bb68180000f0b5f8084b82
:103664001b685a1c064b1a60fcf7aeffc046bd46e9
:1036740004b080bd00000020ff0f00200c100020cb
:103684001810002080b500af024b1b681800bd461f
:1036940080bdc0460c10002080b500af024b1b68f3
:1036a4001800bd4680bdc0461010002080b500af94
:1036b400c046bd4680bd80b584b000af7860396037
:1036c4000023fb607b68002b0bd0796801235842f0
:1036d40002f084f803001a003b68934201d90123e5
:1036e40000e00023002b12d17b683a685343180092
:1036f400fff776fe0300fb60fb68002b07d07b68b6
:103704003a685a43fb680021180002f06ffafb681c
:103714001800bd4604b080bd80b584b000af8023de
:103724005b01bb60234bfb60fb68072213400cd09a
:10373400fb680733fb60fb6807229343fb60ba68ae
:10374400fb68d21a1b4bd318bb60fa681a4b1a6079
:10375400194b00225a60fa68bb68d3187b600822b0
:103764007b689b1a7b607b68072293437b607a6843
:10377400124b1a60114b1b6800225a600f4b1b68d6
:1037840000221a60fb683b603b687a68d21a3b6887
:103794005a600a4b1a683b681a603b685a68084bbf
:1037a4001a603b685a68074b1a60c046bd4604b0ad
:1037b40080bdc0460000002000100020081000203a
:1037c400101000200c10002080b584b000af786089
:1037d400304bfb6002e0fb681b68fb60fb681b6806
:1037e4007a689a42f7d8fa682a4b9a420ed0fa6855
:1037f400294b9a4205d3fa68284b9a4201d80123ef
:1038040000e00023002b01d172b6fee7fb68bb6029
:10381400fb685b68ba68d3187a689a4208d1fb6877
:103824005a687b685b68d218fb685a60fb687b60e7
:103834007b68bb607b685b68ba68d218fb681b68ee
:103844009a4218d1fb681a68154b1b689a420dd02e
:103854007b685a68fb681b685b68d2187b685a608f
:10386400fb681b681a687b681a6008e00c4b1a68ce
:103874007b681a6003e0fb681a687b681a60fa6860
:103884007b689a4202d0fb687a681a60c046bd46db
:1038940004b080bd0010002000000020ff0f0020b5
:1038a4000810002080b586b000af786000233b612b
:1038b4000023fb6001235b42bb60fcf779fe224bd3
:1038c4001b687b617b69002b1bd015e03b690133ce
:1038d4003b617b695b68fa689a4202d27b695b68e8
:1038e400fb607b695b68ba689a4202d97b695b6852
:1038f400bb607b691b687b61144b1b687a699a42c5
:10390400e4d1fcf761fe7b68fa685a607b68ba68a8
:103914009a607b683a69da6001f046fb0c4b1a68de
:103924007b681a600b4b1a687b685a610a4b1a68e9
:103934007b689a61094b1a687b681a6101f046fb3f
:10394400c046bd4606b080bd00100020081000200f
:103954000c1000201410002018100020101000205b
:1039640080b500af084b00221a60084b00221a6091
:10397400074b00221a60074b00221a60064b0022f4
:103984001a60c046bd4680bd081000200c100020ff
:0c3994001010002014100020181000205b
:020000040000fa
:1039a00080b582b000affb1d00221a70184b802238
:1039b00052009a61222002f0f9f8164b180002f02a
:1039c000f5f8134b802252005a61222002f0eef8e3
:1039d000052001f0b1f901f0d7f903001a00fb1d31
:1039e0001a70fb1d1b78fe22134005d0012001f048
:1039f000a3f9012001f0a0f9054b802252009a6141
:103a0000222002f0d3f8c046bd4602b080bdc046b9
:103a10000044004192760a0080b582b000af0200f7
:103a2000fb1d1a700d4b802252005a61222002f0b9
:103a3000bdf8012001f080f9fb1d1b789bb2180036
:103a400001f07af9054b802252009a61222002f09f
:103a5000adf8c046bd4602b080bdc046004400413e
:103a600080b582b000affb1d00221a700e4b802281
:103a700052005a61222002f099f8052001f05cf909
:103a800001f082f903001a00fb1d1a70064b802218
:103a900052009a61222002f089f8fb1d1b78180061
:103aa000bd4602b080bdc0460044004180b582b032
:103ab00000af0200bb1d1a807b1d0a1c1a70124b3e
:103ac000802252005a61222002f070f87b1d1b7880
:103ad0009bb2180001f030f9bb1d01331b789bb27b
:103ae000180001f029f9bb1d1b789bb2180001f0ea
:103af00023f9054b802252009a61222002f056f8e9
:103b0000c046bd4602b080bd0044004180b582b0d1
:103b100000af0200bb1d1a807b1d0a1c1a70144bdb
:103b2000802252005a61222002f040f8022001f067
:103b300003f9bb1d01331b789bb2180001f0fcf8a0
:103b4000bb1d1b789bb2180001f0f6f87b1d1b789b
:103b50009bb2180001f0f0f8054b802252009a61e8
:103b6000222002f023f8c046bd4602b080bdc04608
:103b70000044004190b585b000af0200bb1d1a8023
:103b80000f243b1900221a70144b802252005a61f4
:103b9000222002f00bf8032001f0cef8bb1d013308
:103ba0001b789bb2180001f0c7f8bb1d1b789bb2b5
:103bb000180001f0c1f801f0e7f803001a003b1902
:103bc0001a70064b802252009a61222001f0eeff0b
:103bd0003b191b781800bd4605b090bd004400415c
:103be00080b584b000af02003960bb1d1a80204b45
:103bf000802252005a61222001f0d8ff012001f0fa
:103c00009bf8802001f098f8022001f095f8bb1d88
:103c100001331b789bb2180001f08ef8bb1d1b7896
:103c20009bb2180001f088f80f23fb1800221a70cd
:103c30000de03b685a1c3a601b789bb2180001f0fb
:103c40007bf80f217b181a787b1801321a700f232a
:103c5000fb181b781f2becd9054b802252009a6170
:103c6000222001f0a3ffc046bd4604b080bdc0467f
:103c70000044004180b584b000af02003960bb1d34
:103c80001a80204b802252005a61222001f08effc0
:103c9000012001f051f8802001f04ef8032001f0de
:103ca0004bf8bb1d01331b789bb2180001f044f8a0
:103cb000bb1d1b789bb2180001f03ef80f23fb18c8
:103cc00000221a700ee001f05ff8030019003b6853
:103cd0005a1c3a60cab21a700f217b181a787b18e6
:103ce00001321a700f23fb181b781f2bebd9054be1
:103cf000802252009a61222001f058ffc046bd4642
:103d000004b080bd0044004180b584b000af39608c
:103d10001100bb1d021c1a803b1d0a1c1a80214b7e
:103d2000802252005a61222001f040ff012001f060
:103d300003f8402001f000f8022000f0fdffbb1d59
:103d400001331b789bb2180000f0f6ffbb1d1b78f7
:103d50009bb2180000f0f0ff0f23fb1800221a702e
:103d60000de03b685a1c3a601b789bb2180000f0cb
:103d7000e3ff0f217b181a787b1801321a700f238a
:103d8000fb181b789bb23a1d12889a42e9d8054b62
:103d9000802252009a61222001f008ffc046bd46f1
:103da00004b080bd0044004180b584b000af3960ec
:103db0001100bb1d021c1a803b1d0a1c1a80224bdd
:103dc000802252005a61222001f0f0fe012000f012
:103dd000b3ff402000f0b0ff032000f0adffbb1d9b
:103de00001331b789bb2180000f0a6ffbb1d1b78a7
:103df0009bb2180000f0a0ff0f23fb1800221a70de
:103e00000ee000f0c1ff030019003b685a1c3a6045
:103e1000cab21a700f217b181a787b1801321a70f7
:103e20000f23fb181b789bb23a1d12889a42e8d8e0
:103e3000054b802252009a61222001f0b7fec04655
:0c3e4000bd4604b080bdc04600440041f7
:020000040000fa
:103e4c0080b582b000af2020fff7c6fa03007b607c
:103e5c007b68002b07d07b6800221a607b680433d8
:103e6c00180001f02dfa7b681800bd4602b080bd29
:103e7c0080b58ab000aff860b9607a603b60fb68cf
:103e8c003b620023fb617b681b0e1b0601d072b6e4
:103e9c00fee77b68002b01d172b6fee7fcf784fbd2
:103eac003b6a1b68bb61ba68fb681100180000f024
:103ebc0032f9ba69bb6813437a6813407a689a423c
:103ecc000dd1ba69bb6813437b623b6a1b687a6885
:103edc00d2431a403b6a1a6000233b6014e03b68f3
:103eec00002b0cd03b6a181d7b68a022d204134314
:103efc003a681900fcf73cfe00237b6204e03b6a45
:103f0c001b687b620123fb61fcf75afb03007b619e
:103f1c003b68002b27d07b69002b01d101f030f8d6
:103f2c00fdf79efa03007b627a6a80239b041340a0
:103f3c0015d101f035f83b6a1b687b627b6a7a68a5
:103f4c0013407a689a4206d13b6a1b687a68d2435e
:103f5c001a403b6a1a6001f035f80123fb617b6a59
:103f6c001b021b0a7b627b6a1800bd460ab080bd2f
:103f7c0080b58cb000aff860b9607a603b60fb68cc
:103f8c007b620023bb6200233b62fb68002b01d1e8
:103f9c0072b6fee7bb681b0e1b0601d072b6fee7bd
:103fac00bb68002b01d172b6fee7fcf7fdfa7b6a09
:103fbc001b68fb613a68b968fb69180000f071f97d
:103fcc000300bb61bb69002b0ed0fb69fb620023b5
:103fdc00bb637b68002b2ad07b6a1b68ba68d24310
:103fec001a407b6a1a6022e0bb6b002b04d1fb6980
:103ffc00fb6201233b621ae07b68002b04d0bb6a96
:10400c00802252041343bb623b68002b04d0bb6a72
:10401c008022d2041343bb627b6a181dba68bb6a48
:10402c001343ba6b1900fcf7a3fd0023fb62fcf7ea
:10403c00c7fa03007b61bb6b002b2cd07b69002b78
:10404c0001d100f09dfffdf70bfa0300fb62fa6a49
:10405c0080239b0413401ad100f0a2ff7b6a1b68db
:10406c00fb623a68b968fb6a180000f01af9031e83
:10407c0009d07b68002b06d07b6a1b68ba68d243d8
:10408c001a407b6a1a6001233b6200f09bfffb6abb
:10409c001b021b0afb62fb6a1800bd460cb080bdfc
:1040ac0080b584b000af786039607b68fb607b685a
:1040bc00002b01d172b6fee73b681b0e1b0601d02c
:1040cc0072b6fee700f06cfffb681b68bb60fb6818
:1040dc001b683a68d2431a40fb681a6000f072ff02
:1040ec00bb681800bd4604b080bd80b586b000af7b
:1040fc0078607b687b6100f07dff03003b617b692e
:10410c001b68fb603b69180000f07afffb68180025
:10411c00bd4606b080bd80b58cb000af786039600c
:10412c000023bb627b683b6200237b627b68002bb5
:10413c0001d172b6fee73b681b0e1b0601d072b6ae
:10414c00fee73b6a0433fb61fb690833bb61fcf798
:10415c002bfafb69db68fb623b6a1a683b681a4303
:10416c003b6a1a603de0fb6a5b687b61fb6a1b681b
:10417c003b6100237b623b691b0e1b06fb603b69aa
:10418c001b021b0a3b61fa688023db04134007d136
:10419c003b6a1b683a6913400bd001237b6208e031
:1041ac003b6a1b683a6913403a699a4201d1012370
:1041bc007b627b6a002b12d0fa6880235b0413406d
:1041cc0003d0ba6a3b691343bb623b6a1b6880220b
:1041dc0092041a43fb6a11001800fcf7dbfd7b69a3
:1041ec00fb62fa6abb699a42bdd13b6a1b68ba6a28
:1041fc00d2431a403b6a1a60fcf7e2f93b6a1b682f
:10420c001800bd460cb080bd80b584b000af78609e
:10421c007b68fb60fb68002b01d172b6fee7fb6884
:10422c000433bb60fcf7c0f90fe0bb68da68bb680d
:10423c0008339a4201d172b6fee7bb68da68802374
:10424c009b0419001000fcf7a5fdbb681b68002b34
:10425c00ebd1fcf7b5f9fb681800fff7b1f9c046d4
:10426c00bd4604b080bd80b582b000af78603960c7
:10427c003a687b6811001800fff74dffc046bd4639
:10428c0002b080bd80b582b000af786039603a680a
:10429c007b6811001800fff703ffc046bd4602b053
:1042ac0080bd80b586b000aff860b9607a6000233d
:1042bc007b617b68002b06d1fb68ba6813400ad07f
:1042cc0001237b6107e0fb68ba681340ba689a4225
:1042dc0001d101237b617b691800bd4606b080bd0e
:020000040000fa
:1042ec0080b500aff24bda69f14b08210a43da6171
:1042fc00f049842280235b008b50ee49842280237a
:10430c009b008b50eb4b10225a60ea4ac8230121c8
:10431c00d154e84ac9230121d154e64a442301214e
:10432c00d154e44ab423d35cdbb2e24a01210b43ff
:10433c00d9b2b423d154df4ab423d35cdbb2dd4a07
:10434c0010210b43d9b2b423d154da4a3223d35cb3
:10435c00dbb2d84a01210b43d9b23223d154d54b0d
:10436c0008225a60d34a43230221d154d14b8022d4
:10437c00d2029a60cf4b802212039a60cd4b8022de
:10438c0052039a60cb4b8022d2025a61c94b8022d5
:10439c0012035a61c74b802252035a61c54b8022cb
:1043ac00d2059a60c34b802212069a60c14b8022c0
:1043bc00d2059a61bf4b802212069a61bd4b8022b6
:1043cc0052045a60bb4b802292045a60b94a58235b
:1043dc000121d154b74a59230121d154b54a3c2368
:1043ec00d35cdbb2b34a06210b43d9b23c23d15484
:1043fc00b04a3c23d35cdbb2ae4a60210b43d9b24a
:10440c003c23d154ab4b802212025a60a94b802220
:10441c0052025a60a74b802292025a60a54a50233e
:10442c000121d154a34a51230121d154a14a38234b
:10443c00d35cdbb29f4a02210b43d9b23823d1544f
:10444c009c4a3823d35cdbb29a4a20210b43d9b265
:10445c003823d154974b802252009a60954b80227e
:10446c0052009a61934b80229a60924b80229a61ff
:10447c00904b20229a608f4b20229a618d4b4022c8
:10448c005a608c4b802212019a608a4b8022d20097
:10449c009a60884b802292005a60864a4b230121f5
:1044ac00d154844a4a230121d154824a49230121ff
:1044bc00d154804a3523d35cdbb27e4a30210b4386
:1044cc00d9b23523d1547b4a3523d35cdbb2794a3c
:1044dc0003210b43d9b23523d154764a3423d35c10
:1044ec00dbb2744a30210b43d9b23423d154714b13
:1044fc00802252059a606f4b802252059a616d4b57
:10450c00802212055a606b4b802292039a60694b91
:10451c008022d2039a60674b802212045a60654a4b
:10452c0055230121d154634a56230121d154614aa8
:10453c0057230121d1545f4a3a23d35cdbb25d4a45
:10454c0030210b43d9b23a23d1545a4a3b23d35c82
:10455c00dbb2584a02210b43d9b23b23d154554a02
:10456c003b23d35cdbb2534a20210b43d9b23b2310
:10457c00d154504988228023db008b504d4998221e
:10458c008023db008b504b4b802292019a60494b6d
:10459c00802252019a604749842280231b018b5050
:1045ac00444a4d230121d154424a4c230121d15478
:1045bc00404acb230121d1543e4a3623d35cdbb293
:1045cc003c4a30210b43d9b23623d154394a3623d5
:1045dc00d35cdbb2374a03210b43d9b23623d15417
:1045ec00344a3523d35cdbb2324a30210b43d9b287
:1045fc003523d1542f4988228023db038b502d493e
:10460c00842280231b048b502a4ad6230121d154a7
:10461c00284ad7230121d154264abb23d35cdbb2d1
:10462c00244a03210b43d9b2bb23d154214abb23c7
:10463c00d35cdbb21f4a30210b43d9b2bb23d1541c
:10464c001c4b04229a601b4a42230121d154194a63
:10465c003123d35cdbb2174a05210b43d9b231238a
:10466c00d154144a88230421d150124a882308219a
:10467c00d150104ac2230121d1540e4ac323012127
:10468c00d1540c4ab123d35cdbb20a4a04210b434c
:10469c00d9b2b123d154074ab123d35cdbb2054a5a
:1046ac0040210b43d9b2b123d154c046bd4680bd85
:0846bc0000040040004400412d
:020000040000fa
:1046c400f0b58db000af7860fcf772f80300bb6200
:1046d4002023fb1800221a605a600823fb180022ca
:1046e4001a605a609a60da601a615a61642202217f
:1046f400002001f0b9f864220221012001f0b4f88d
:10470400994bdb681800fdf72dfd031e59d0964b1d
:10471400db682024391900221800fdf755fa031e1e
:1047240048d03b195b78012b44d83b195b781900be
:104734003b1918780823fa180b005b005b189b00e0
:10474400011c99543b191b78022b03d03b191b788d
:10475400032b2fd120257b195b7818007b195a680d
:104764000826b91903005b001b189b00cb180433ff
:104774001a607b195b781c00fcf71af80100ba195f
:1047840023005b001b199b00d318083319607b19a5
:104794005b781c0075487b195b781a00744bd20057
:1047a400d158734ae300d31804331a68cb01c318f1
:1047b40014331a606c4bdb681800fdf7d3fc031e3e
:1047c400a5d12f23fb1800221a70bfe02f23fb185a
:1047d4001a780823f91813005b009b189b005b5c94
:1047e400012b1bd002dc002b05d0a9e0022b28d022
:1047f400032b62d0a4e02f22bb181b785b48ba18a5
:1048040011785b4ac9008958594adb00d31804332c
:104814001a68cb01c31814331a6091e02f22bb1815
:104824001b785248ba181178514ac9008958504a1d
:10483400db00d31804331a68cb01c31818331a6089
:104844007ee0fbf7b5ff2f243b191a780826b91927
:1048540013005b009b189b00cb1808331b68c11a1c
:104864003b191a78b81913005b009b189b00c318f6
:1048740004331b685b0899425fd325003b191c78fd
:10488400fbf796ff0100ba1923005b001b199b007c
:10489400d318083319607b191b7834487a191178b6
:1048a400334ac9008958324adb00d31804331a68e2
:1048b400cb01c3181c331a603fe02c492f243b1949
:1048c4001a782b4bd200d358db01cb1814331a6857
:1048d4003b191b782649db00cb1804331b681340b3
:1048e4002dd0fbf765ff3b191a78082579191300b9
:1048f4005b009b189b00cb1808331b68c11a3b193b
:104904001a78781913005b009b189b00c3180433b2
:104914001b68994213d33b191b7814483a19117830
:10492400134ac9008958124adb00d31804331a68a1
:10493400cb01c31814331a6001e0c04600e0c0463e
:104944002f217b181a787b1801321a702f23fb1839
:104954001b78012b00d839e72823fb180121180004
:10496400fbf71efdcce6c046f411002000440041d4
:04497400185c0000cb
:020000040000fa
:1049780080b586b000aff860b960bb1d1a801723f8
:10498800fb1800221a70fb68002b00d12de1bb68d0
:10499800002b00d129e1bb681b78082b00d9e7e080
:1049a8009a00954bd3181b689f46bb1d1a88c023d5
:1049b8009900002391425b41dab2fb6801210a4069
:1049c80010011a7810218a43111c021c0a431a701c
:1049d800cee0bb1d1a88c0239900002391425b4199
:1049e800dab2fb6801210a4050011a7820218a4373
:1049f800111c021c0a431a70bae0bb1d1a88c02396
:104a08009900002391425b41dab2fb6801210a4018
:104a180090011a7840218a43111c021c0a431a701b
:104a2800a6e0bb1d1a88c0239900002391425b4170
:104a3800dab2fb68d0011a787f210a40111c021ce7
:104a48000a431a7094e0bb1d1a88c02399000023fa
:104a580091425b41dbb21a1c7f231340dab2fb6838
:104a68007f210a4010005a787f218a43111c021cba
:104a78000a435a707ce0bb1d1a88c02399000023a2
:104a880091425b41dbb21a1c7f231340dab2fb6808
:104a98007f210a4010009a787f218a43111c021c4a
:104aa8000a439a7064e0554b1b6a082213405a4225
:104ab8005341dab2fb68d0019a787f210a40111c71
:104ac800021c0a439a7053e0fb68ba1d1288da8008
:104ad800bb1d1b88c02292009a429b415b42dab2fe
:104ae800fb6801210a4090001a7804218a43111cae
:104af800021c0a431a70bb1d1a88ff210023914229
:104b08005b41dab2fb6801210a40d0001a7808211b
:104b18008a43111c021c0a431a7029e0fb68ba1d5b
:104b280012889a80bb1d1a88ff21002391425b419d
:104b3800dab2fb6801210a4010001a7801218a4381
:104b4800111c021c0a431a70bb1d1b88c02292004c
:104b58009a429b415b42dab2fb6801210a409018f5
:104b68001a7802218a43111c021c0a431a70c04693
:104b7800bb681b78072b04d8bb681b780133dab2f3
:104b880000e00022bb681a70bb681b781a0001237a
:104b9800134004d0194b802252039a6103e0174b4b
:104ba800802252035a61bb681b781a000223134003
:104bb80004d0124b802212039a6103e00f4b80222b
:104bc80012035a61bb681b781a000423134004d0ef
:104bd8000a4b8022d2029a6103e0084b8022d2025b
:104be8005a611723fb1801221a701723fb181b7828
:104bf8001800bd4606b080bd285b00000044004197
:020000040000fa
:104c080080b582b000af0200fb1d1a70fb1d1b7837
:104c18007f2b0ed8fb1d1b781a001f231340074952
:104c280001229a40130080228b50bff34f8fbff3ad
:104c38006f8fc046bd4602b080bdc04600e100e0af
:104c480080b582b000af0200fb1d1a70fb1d1b78f7
:104c58007f2b0ad8fb1d1b781a001f231340054918
:104c680001229a40c0235b00ca50c046bd4602b02c
:104c780080bdc04600e100e080b500af274b1a6a4e
:104c8800264b10210a431a62254b264a5a80c046f1
:104c9800234b5b78dbb25bb2002bf9db224b1a6843
:104ca800214b01210a431a60c0461f4bdb690122d0
:104cb8001340fad11c4b1d4a1a601b4b80229202ea
:104cc8005a60c046184bdb6904221340fad1164bd0
:104cd80017221a73144b1a68134b02210a431a60dd
:104ce800c046114bdb6902221340fad10e4b022257
:104cf8001a750d4b04221a750b4b08221a750a4bac
:104d080001221a75084b80221a750b20fff798ffad
:104d18000b20fff775ffc046bd4680bd000400406c
:104d2800000c004016430000001000420c00110067
:104d380080b584b000af0200bb1d1a800f217b181c
:104d480000221a700d4b9a6a7b181a70c0460b4bda
:104d58001b7edbb21a0001231340f8d0074bba1da3
:104d680012889a62c046054b1b7edbb21a000223ea
:104d78001340f8d0c046bd4604b080bd00100042c4
:104d880080b582b000affb1d00221a70144b9a6ade
:104d9800fb1d1a70c046124b1b7edbb21a000123a2
:104da8001340f8d00e4baa229a62c0460c4b1b7ec9
:104db800dbb21a0004231340f8d0094b9a6afb1d92
:104dc8001a70c046064b1b7edbb21a000223134042
:104dd800f8d0fb1d1b789bb21800bd4602b080bd01
:104de8000010004280b582b000af78600a00fb1c5a
:104df8001a707b68002b0fd007e07b685a1c7a601a
:104e08001b789bb21800fff793fffb1c1b78fa1c5a
:104e1800591e1170002bf0d1c046bd4602b080bdae
:104e280080b582b000af78600a00fb1c1a707b68fe
:104e3800002b10d008e0fff7a3ff030019007b68e0
:104e48005a1c7a60cab21a70fb1c1b78fa1c591ecd
:104e58001170002befd1c046bd4602b080bdc046e0
:020000040000fa
:084e680049444c450000c0461e
:020000040000fa
:104e700080b584b000aff860b9607a60fb68043b2d
:104e8000fb60fb68802252041a60fb68043bfb60f5
:104e9000ba68fb681a60fb68043bfb60084afb6861
:104ea0001a60fb68143bfb607a68fb681a60fb6859
:104eb000203bfb60fb681800bd4604b080bdc046c7
:104ec000c54e000080b582b000af00237b60074b69
:104ed0001b68013301d072b6fee772b6c0467b682c
:104ee000002bfcd0c046bd4602b080bd441200205d
:104ef00080b500afc046bd4680bd094a136818683a
:104f0000203080f30988022080f31488bff36f8f6c
:104f10003fbcae4608bc04bc62b61847c046c0469b
:104f20001c100020c04680b500af0e4b1a680d4b18
:104f3000ff2109040a431a600a4b1a68094bff2132
:104f400009060a431a6000f0a7f8074b00221a600e
:104f5000fff7d3fffbf7a2fdfff7b4ff0023180014
:104f6000bd4680bd20ed00e04412002080b500afba
:104f7000054b1a68fa239b009a4201d072b6fee7ed
:104f8000c046bd4680bdc0464412002080b500af7b
:104f9000054b802252051a60bff34f8fbff36f8f0e
:104fa000c046bd4680bdc04604ed00e080b500af00
:104fb00072b6064b1b685a1c044b1a60bff34f8f26
:104fc000bff36f8fc046bd4680bdc046441200206f
:104fd00080b500af094b1b68002b01d172b6fee70c
:104fe000064b1b685a1e054b1a60044b1b68002bae
:104ff00000d162b6c046bd4680bdc0464412002006
:10500000eff3108072b67047c046180080f3108826
:105010007047c046eff30980114b1a6820381060c2
:10502000f0c044464d4656465f46f0c008b572b6dd
:10503000fbf734fd62b60cbc116808681030f0c88c
:10504000a046a946b246bb4680f309882038f0c87e
:105050001847c046c046c046c046c046c046c046c7
:105060001c100020c04680b582b000affff7c8ff1b
:1050700003007b60fbf704fc031e03d0054b80227a
:1050800052051a607b681800fff7c0ffc046bd4696
:1050900002b080bd04ed00e080b500af074b0022f8
:1050a0001a60074b00221a60064b074a1a60034b2e
:1050b00007221a60c046bd4680bdc04610e000e031
:0c50c00018e000e014e000e07fbb0000fe
:020000040000fa
:1050cc0080b582b000affb1d00221a70bb1d002200
:1050dc001a703c4b1a6a3b4b802149020a431a62f4
:1050ec00394b3a4a5a80c046374b5b78dbb25bb2dd
:1050fc00002bf9db364b1b78dbb2354a01210b4315
:10510c00dbb21370c046324b5b7edbb25bb2002b62
:10511c00f9db304b5b68db08dab2fb1d07210a4078
:10512c001a702c4b1b68db0edab2bb1d1f210a4018
:10513c001a70284b5b685b01e0221340d9b2bb1d8f
:10514c00ba1d12780a431a70fb1d1b781b021ab287
:10515c00e023db0013401ab2bb1d1b781bb21343b8
:10516c001ab21b4b92b21a85194bc82292009a8024
:10517c00c046174b5b7edbb25bb2002bf9db144bea
:10518c0082225a70124b144a1a61c046104b5b7e35
:10519c00dbb25bb2002bf9db0d4b00229a700c4b8f
:1051ac001b78dbb20a4a02210b43dbb21370c046f8
:1051bc00074b5b7edbb25bb2002bf9dbc046bd4616
:1051cc0002b080bd00040040000c00401e420000f4
:1051dc0000400042206080000218000f80b584b0af
:1051ec0000af0200fb1d1a700e23fb1800221a8060
:1051fc000d217b1800221a702f4b1b69dab27b1819
:10520c001f210a401a70c0462b4b5b7edbb25bb28f
:10521c00002bf9db0d23fa18fb1d12781b789a4230
:10522c0024d0254b1a69244b1f218a431a61c0468e
:10523c00214b5b7edbb25bb2002bf9db1f4b180002
:10524c0000f0aefc1c4b1969fb1d1b781f221a4089
:10525c00194b0a431a61c046174b5b7edbb25bb23b
:10526c00002bf9db154b180000f09afc124b0b22ab
:10527c001a76114b1b7bdbb20f4a02210b43dbb2bc
:10528c001373c0460c4b5b7edbb25bb2002bf9dbbd
:10529c00c046094b1b7edbb21a0001231340f8d029
:1052ac00054a0e217b18528b1a807b181b8818001c
:1052bc00bd4604b080bdc04600400042c91a000083
:020000040000fa
:1052cc0080b582b000af78607b6808331a007b68c9
:1052dc005a607b68012252429a607b6808331a003c
:1052ec007b68da607b6808331a007b681a617b681c
:1052fc0000225a617b6800229a617b6800221a6046
:10530c00c046bd4602b080bd80b582b000af7860ab
:10531c007b6800221a61c046bd4602b080bd80b5d4
:10532c0084b000af786039607b685b68fb603b6879
:10533c00fa685a60fb689a683b689a60fb689b68dd
:10534c003a685a60fb683a689a603b687a681a61f6
:10535c007b681b685a1c7b681a60c046bd4604b04b
:10536c0080bd80b584b000af786039603b681b6845
:10537c00bb60bb68013303d17b681b69fb600ce02d
:10538c007b680833fb6002e0fb685b68fb60fb68d2
:10539c005b681b68ba689a42f6d2fb685a683b682d
:1053ac005a603b685b683a689a603b68fa689a6036
:1053bc00fb683a685a603b687a681a617b681b68bc
:1053cc005a1c7b681a60c046bd4604b080bd80b5cf
:1053dc0084b000af78607b681b69fb607b685b689e
:1053ec007a6892689a607b689b687a6852685a609f
:1053fc00fb685b687a689a4203d17b689a68fb68a1
:10540c005a607b6800221a61fb681b685a1efb6895
:0e541c001a60fb681b681800bd4604b080bd16
:020000040000fa
:02542a00fee79b
:020000040000fa
:10542c0080b500affef70cfd0200024b1a60c046bf
:10543c00bd4680bdf411002080b500afc046bd460e
:10544c0080bd80b500af0120fcf7ebf90200054be5
:10545c005a600120fcf7e5f90200024b9a60c04645
:10546c00bd4680bdf411002080b500af002208219c
:10547c000820fcf73cf902000a4bda6000220121fb
:10548c001020fcf734f90200064b1a6100220121ae
:10549c000820fcf72cf90200024b5a61c046bd46ad
:1054ac0080bdc046f411002080b582b002af104917
:1054bc001048114b01930323009300238022faf729
:1054cc0042fe0e490e480f4b01930023009300231c
:1054dc008022faf738fe0c490c480d4b019303233c
:1054ec00009300238022faf72efec046bd4680bdf5
:1054fc004c5b0000715b00000c120020585b00003c
:10550c00c546000010120020645b0000e755000047
:04551c001412002045
:020000040000fa
:1055200080b500afa020fdf7f7fc03001800bd46d2
:1055300080bd80b582b000af0200fb1d1a70bb1d9c
:105540000a1c1a70c0461800bd4602b080bd90b556
:1055500083b000af040008001100fb1d221c1a706c
:10556000bb1d021c1a707b1d0a1c1a70c046180055
:10557000bd4603b090bd80b582b000af0200fb1df8
:105580001a70bb1d0a1c1a70c0461800bd4602b036
:1055900080bd90b583b000af040008003a601900e8
:1055a000fb1d221c1a70bb1d021c1a707b1d0a1cdd
:1055b0001a70c0461800bd4603b090bd90b583b0c8
:1055c00000af040008003a601900fb1d221c1a708d
:1055d000bb1d021c1a707b1d0a1c1a70c0461800e5
:0655e000bd4603b090bdc2
:020000040000fa
:1055e600b0b588b000af7860fbf7e1f803007b61e7
:1055f6001f23fb1800221a700c23fb1800221a60c6
:105606005a600b23fb1800221a701c23fb18002279
:105616001a801a23fb1800221a801923fb1800226d
:105626001a701f243b191b78012b17d0022b21d08f
:10563600002b2cd10220fff7d4fd03001a000b2506
:1056460079190c23fb181800fff793f97b191b78bf
:10565600002b1bd13b1901221a7017e01c23fc18e2
:105666000320fff7befd030023801f23fb18022241
:105676001a700ce01a23fc180420fff7b2fd030091
:1056860023801f23fb1800221a7000e0c046fff794
:1056960044ff1423fb180a211800faf780fec0e71e
:020000040000fa
:0256a60070474b
:020000040000fa
:1056a8003c1200200400000001000000000000007f
:1056b800181200201c00000000000000401200200a
:1056c8000400000001000000080000001c10002079
:1056d8008801000000000000000000201c100000ed
:1056e8000000000044120020040000000100000037
:1056f800aaaaaaaaf41100202400000000000000b1
:10570800341200200400000000000000a411002052
:1057180050000000000000003812002004000000c3
:1057280000000000481200200400000001000000f2
:1057380000000000000000000000000066666666c9
:020000040000fa
:1057480080b500af194b01221a70c046174b5b7821
:10575800dbb25bb2002bf9db144b802252009a605b
:10576800124bc22292025a60104b114a9a600f4b98
:10577800104a5a600d4b104a9a600c4b0f4a5a60f7
:105788000a4b0f4a9a60094b0e4a5a60074b0e4a59
:105798009a60064b0d4a5a60044b0d4a9a60034bb7
:1057a8000c4a5a60c046bd4680bdc046000c004049
:1057b80001020000010803000203000002080300c0
:1057c80003040000030803000406000004080300a3
:0857d800050c000005080300a8
:020000040000fa
:1057e000002934d00123002210b488422cd3012494
:1057f0002407a14204d2814202d209011b01f8e729
:10580000e400a14204d2814202d249005b00f8e7e1
:10581000884201d3401a1a434c08a04202d3001b0d
:105820005c0822438c08a04202d3001b9c08224340
:10583000cc08a04202d3001bdc082243002803d07e
:105840001b0901d00909e3e7101c10bc704701b522
:10585000002000f0edf902bd0029f8d003b5fff7f4
:0c586000c1ff0ebc4243891a1847c04625
:020000040000fa
:10586c0090b587b000af3a60fb1d021c1a70bb1dcf
:10587c000a1c1a7017243b1900221a700c217b1871
:10588c0000221a605a60bb1d1b78002b1ad0bb1d5e
:10589c001b78032b16d87b18fa1d12785a707b18bc
:1058ac00ba1d12781a707b183a685a60094bd8687e
:1058bc00791800230122fbf7d0ff02003b19511e7f
:1058cc008a411a701723fb181b781800bd4607b0c5
:0858dc0090bdc046f41100204c
:020000040000fa
:1058e40080b500af184b872252009a82c046164bef
:1058f400db6802221340fad0134b144a9a64124b09
:10590400134ada64104a44230221d154c0460e4a91
:105914005023d35cdbb21a0004231340f7d0c046f3
:10592400094a5023d35cdbb21a000123134007d188
:10593400054a5023d35cdbb21a0002231340efd094
:10594400c046bd4680bdc04600080040700b0b0039
:045954000816010030
:020000040000fa
:1059580000230e4a10b513600d4a13600d4a1360f8
:105968000d4a13600d4a13600d4a536213610133e7
:105978009360fff794fefff792fe0a4c0a4b9c4295
:1059880000d310bd08cc9847f8e7c046381200206d
:10599800b0110020ac110020a4110020a811002093
:0c59a800b4110020bc000000c000000092
:020000040000fa
:1059b4000d4b002b00d098470c4b002b00d0984780
:1059c40000f080f80a4bff2293430a4a93600a4b83
:1059d40098470a4b002b00d09847094b002b00d066
:1059e400984700f033f8fee70000000000000000d4
:1059f4000000000000ed00e0595900000000000024
:045a0400000000009e
:020000040000fa
