:020000040000fa
:10000000f07f0020396200008963000091630000e6
:1000100000000000000000000000000000000000e0
:100020000000000000000000000000007b5d0000f8
:10003000000000000000000065590000b7590000f2
:100040007b5d00007b5d00007b5d00007b5d000050
:100050007b5d00007b5d00007b5d00007b5d000040
:100060007b5d00007b5d00007b5d00007b5d000030
:100070007b5d00007b5d00007b5d00007b5d000020
:100080007b5d00007b5d00007b5d00007b5d000010
:100090007b5d000000000000000000007b5d0000b0
:1000a0007b5d00007b5d00007b5d00007b5d0000f0
:020000040000fa
:1000b000f8b5c046f8bc08bc9e467047b562000063
:1000c000f8b5c046f8bc08bc9e4670478d6200007b
:020000040000fa
:1000d00090b58bb004aff860b9607a603b607b6824
:1000e0009b00180003f082f903003b613b69002b81
:1000f00016d0482003f07af903007b617b69002b5e
:1001000009d07b6948220021180006f0b7f97b6905
:100110003a691a6306e03b69180003f05bfa01e0f4
:1001200000237b617b69002b0ed03c687a68b9683c
:10013000f868002303937b690293fb6a0193bb6a0f
:100140000093230000f02bf87b691800bd4607b030
:1001500090bd90b589b002aff860b9607a603b603d
:100160003c687a68b968f868fb6a0193bb6a0093d7
:100170002300fff7adff03003b613b69002b06d076
:100180003b69180000f082f801237b6102e0012343
:100190005b427b617b691800bd4607b090bd80b5ae
:1001a00086b000aff860b9607a603b60bb6a1a6bda
:1001b0007b6835498c4663449b00d3183b613b699f
:1001c000072293433b613b690722134001d072b67b
:1001d000fee7bb68002b1fd000237b6113e0ba68e9
:1001e0007b69d3181878ba6a34217b69d3185b18f5
:1001f000021c1a70ba687b69d3181b78002b06d0d2
:100200007b6901337b617b69092be8d900e0c0463b
:10021000bb6a3d22002199543b6a082b01d972b672
:10022000fee73b6a082b01d908233b62bb6a3a6aa6
:10023000da62bb6a3a6a1a64bb6a0433180005f0d2
:1002400011fdbb6a1833180005f00cfdbb6aba6ad1
:100250001a613b6a0922d21abb6a9a61bb6aba6afe
:100260005a623a68f9683b69180005f0a9fa020079
:10027000bb6a1a607b6a002b02d07b6aba6a1a607a
:10028000c046bd4606b080bdffffff3f80b584b0cd
:1002900000af786005f032fb3c4b1b685a1c3b4baf
:1002a0001a603b4b1b68002b09d1394b7a681a60e6
:1002b000364b1b68012b10d100f0affe0de0354b23
:1002c0001b68002b09d1324b1b68da6a7b68db6a3a
:1002d0009a4202d82e4b7a681a602f4b1b685a1c20
:1002e0002d4b1a607b68da6a2c4b1b689a4203d943
:1002f0007b68da6a294b1a607b68da6a284913003e
:10030000db009b1a9b00cb1804331b68fb607b68e7
:10031000fa689a60fb689a687b68da60fb689b6899
:100320007a6804325a607b681a1dfb689a607b68a1
:10033000da6a1300db009b1a9b00194a9a187b6843
:100340005a617b68da6a16491300db009b1a9b002e
:1003500059587b68da6a481c11491300db009b1a64
:100360009b00585005f0dcfa0a4b1b68002b08d0a4
:10037000074b1b68da6a7b68db6a9a4201d205f098
:10038000adfac046bd4604b080bdc046781100201d
:100390001c100020841100209411002080110020e6
:1003a0002010002080b586b000af7860396000234f
:1003b0007b617b68002b01d172b6fee73b68002ba6
:1003c00001d172b6fee700f0f5f8224b1b683b61e5
:1003d000214b1b68012b01d072b6fee77b681b68be
:1003e0003a68d318fb607b681b683a699a420bd263
:1003f0007b681b68fa689a4211d2fa683b699a4294
:100400000dd901237b610ae07b681b68fa689a4278
:1004100003d3fa683b699a4201d901237b617b6867
:10042000fa681a607b69002b06d0fa683b69d31a18
:100430000021180001f046f800f0c8f80300bb6086
:10044000bb68002b01d105f049fa7b691800bd4655
:1004500006b080bd7c110020a011002080b584b0c2
:1004600000af78600023fb607b68002b10d000f0a9
:10047000a1f80c4b1b68012b01d072b6fee77b681c
:100480000021180001f01ef800f0a0f80300fb6046
:10049000fb68002b01d105f021fac046bd4604b02f
:1004a00080bdc046a011002080b58ab002af0123f4
:1004b000fb6100233b6100237b6111e01d4a7b69e6
:1004c000d31819783a1d7b69d3180a1c1a703a1d83
:1004d0007b69d3181b78002b06d07b6901337b61c5
:1004e0007b69092beadd00e0c0460023bb6116e012
:1004f000114b3b61bb699a00104bd318391d386909
:1005000001930023009300238022fff722fe0300c3
:10051000fb61fb69002b06d0bb690133bb61bb6982
:10052000002be5dd00e0c046fb691800bd4608b0c1
:1005300080bdc046b85700000d1000009c1100207f
:1005400080b582b000affff7afff03007b607b6830
:10055000012b0dd172b60c4b012252421a600b4b8b
:1005600001221a600a4b00221a6005f084f904e0a7
:100570007b68013301d172b6fee7064b1b68c046ab
:10058000bd4602b080bdc0469811002084110020f5
:100590007c1100204012002080b500af72b6044be1
:1005a00000221a6005f08af9c046bd4680bdc046eb
:1005b0008411002080b500af034b1b685a1c024b0e
:1005c0001a60c046bd4680bda011002080b588b02d
:1005d00000af0023fb610023bb6105f08ff900230e
:1005e0003b616c4b1b68002b01d172b6fee7694b77
:1005f0001b685a1e674b1a60664b1b68002b00d0a5
:10060000c1e0654b1b68002b00d1bce08de0634b63
:10061000db68db68fb61fb699b6afb60fb69db698c
:10062000fa69126a9a60fb691b6afa69d2695a60b0
:10063000fb685a68fb6918339a4203d1fb691a6a4e
:10064000fb685a60fb6900229a62fb681b685a1ead
:10065000fb681a60fb695b69bb60fb699b68fa69b0
:10066000d2689a60fb69db68fa6992685a60bb6875
:100670005a68fb6904339a4203d1fb69da68bb68a4
:100680005a60fb6900225a61bb681b685a1ebb682e
:100690001a60fb69da6a424b1b689a4203d9fb690c
:1006a000da6a3f4b1a60fb69da6a3e491300db00e5
:1006b0009b1a9b00cb1804331b687b60fb697a682c
:1006c0009a607b689a68fb69da607b689b68fa6964
:1006d00004325a60fb691a1d7b689a60fb69da6a0a
:1006e0001300db009b1a9b002e4a9a18fb695a6183
:1006f000fb69da6a2b491300db009b1a9b005958ef
:10070000fb69da6a481c27491300db009b1a9b002f
:100710005850fb69da6a244b1b68db6a9a4204d999
:10072000224b3a6992000121d1501c4b1b68002bcf
:1007300000d06ce7fb69002b01d000f0acfc1c4b37
:100740001b687b617b69002b11d000f099f8031eb8
:1007500004d0164b3a6992000121d1507b69013bcc
:100760007b617b69002bf0d1114b00221a600f4b8b
:100770003a699200d358002b05d00123bb610a4b84
:100780001b6805f0abf805f0cbf8bb691800bd4657
:1007900008b080bda0110020781100205c1100205d
:1007a00080110020201000201c1000208c1100203f
:1007b0008811002080b582b000af044b1b687b60bd
:1007c0007b681800bd4602b080bdc0467c11002089
:1007d00080b582b000af00237b60044b1b683b6098
:1007e0003b681800bd4602b080bdc0467c110020a9
:1007f00080b500af024b1b681800bd4680bdc046e7
:100800007811002080b584b000af78607b68002b41
:1008100002d1084b1b6800e07b68fb60fb68002b83
:1008200001d172b6fee7fb6834331800bd4604b050
:1008300080bdc0461c10002080b584b000af786039
:100840000d4b1b68002b01d072b6fee7fff7b2fe1e
:1008500005f054f8094b1a687b68d218074b1a60e8
:1008600005f05ef8fff7b2fe0300fb60fb681800be
:10087000bd4604b080bdc046a011002088110020f4
:1008800080b588b000af0023fb61794b1b68002b5b
:1008900000d0e2e0774b1b680133bb61754bba694e
:1008a0001a60bb69002b17d1734b1b681b68002ba8
:1008b00001d072b6fee7704b1b687b616f4b1a6804
:1008c0006d4b1a606d4b7a691a606d4b1b685a1c30
:1008d0006b4b1a6000f0dffb6a4b1b68ba699a42e7
:1008e00000d2a6e0644b1b681b68002b04d1654b4b
:1008f000012252421a609ce05f4b1b68db68db6898
:100900003b613b695b68fb60ba69fb689a4203d252
:100910005c4bfa681a608ce03b695b69bb603b69c1
:100920009b683a69d2689a603b69db683a69926869
:100930005a60bb685a683b6904339a4203d13b69e9
:10094000da68bb685a603b6900225a61bb681b6861
:100950005a1ebb681a603b699b6a002b1ed03b691c
:100960009b6a7b603b69db693a69126a9a603b6902
:100970001b6a3a69d2695a607b685a683b691833c6
:100980009a4203d13b691a6a7b685a603b6900222c
:100990009a627b681b685a1e7b681a603b69da6a38
:1009a000394b1b689a4203d93b69da6a364b1a60a5
:1009b0003b69da6a35491300db009b1a9b00cb18b0
:1009c00004331b683b603b693a689a603b689a68ed
:1009d0003b69da603b689b683a6904325a603b695c
:1009e0001a1d3b689a603b69da6a1300db009b1aa8
:1009f0009b00264a9a183b695a613b69da6a234987
:100a00001300db009b1a9b0059583b69da6a481cab
:100a10001e491300db009b1a9b0058503b69da6aa1
:100a20001b4b1b68db6a9a4200d85be70123fb6122
:100a300058e7174b1b68da6a14491300db009b1a4e
:100a40009b005b58012b01d90123fb61114b1b68f3
:100a5000002b07d00123fb6104e00f4b1b685a1cdd
:100a60000d4b1a60fb691800bd4608b080bdc0463a
:100a7000a01100207c1100205411002058110020ea
:100a800090110020981100208011002020100020db
:100a90001c1000208c1100208811002080b582b02d
:100aa00000af224b1b68002b03d0214b01221a60a0
:100ab00038e01f4b00221a601e4b1b687b6007e06a
:100ac0007b68002b01d172b6fee77b68013b7b603f
:100ad00019497a681300db009b1a9b005b58002bb6
:100ae000eed07a681300db009b1a9b00124a9b1819
:100af0003b603b685b685a683b685a603b685a6871
:100b00003b6808339a4203d13b68da683b685a6015
:100b10003b685b68da68094b1a60064b7a681a60b2
:100b2000064b1b68c046bd4602b080bda011002028
:100b30008c11002080110020201000201c100020ab
:100b400080b582b000af786039607b68002b01d13e
:100b500072b6fee7084b1b6818331a007b68110059
:100b6000180005f0acf83b680121180000f0aafc61
:100b7000c046bd4602b080bd1c10002080b586b0c6
:100b800000aff860b9607a60fb68002b01d172b6e3
:100b9000fee71b4b1b68002b01d172b6fee7194b19
:100ba0001b68ba68802109060a439a61fb685b6882
:100bb0007b61144b1b687a69da61124b1b687a6996
:100bc00092681a620f4b1a687b699b6818325a60e8
:100bd0000c4b1b6818331a007b699a60094b1b6821
:100be000fa689a62fb681b685a1cfb681a607b688b
:100bf0000121180000f066fcc046bd4606b080bd6d
:100c0000a01100201c10002080b588b000af7860d3
:100c10007b68db68db68bb61bb69002b01d172b606
:100c2000fee7bb699b6a7b61bb69db69ba69126ad3
:100c30009a60bb691b6aba69d2695a607b695a6853
:100c4000bb6918339a4203d1bb691a6a7b695a603f
:100c5000bb6900229a627b691b685a1e7b691a6015
:100c6000494b1b68002b5fd1bb695b693b61bb696a
:100c70009b68ba69d2689a60bb69db68ba69926896
:100c80005a603b695a68bb6904339a4203d1bb6915
:100c9000da683b695a60bb6900225a613b691b688c
:100ca0005a1e3b691a60bb69da6a384b1b689a4264
:100cb00003d9bb69da6a354b1a60bb69da6a344911
:100cc0001300db009b1a9b00cb1804331b68fb60ee
:100cd000bb69fa689a60fb689a68bb69da60fb686e
:100ce0009b68ba6904325a60bb691a1dfb689a6036
:100cf000bb69da6a1300db009b1a9b00244a9a182e
:100d0000bb695a61bb69da6a21491300db009b1a8f
:100d10009b005958bb69da6a481c1d491300db0067
:100d20009b1a9b0058501be01a4b5b68bb60bb6969
:100d3000ba68da61bb689a68bb691a62bb689b686b
:100d4000ba6918325a60bb6918331a00bb689a60d6
:100d5000bb69104a9a620f4b1b685a1c0d4b1a60f4
:100d6000bb69da6a0c4b1b68db6a9a4205d901231e
:100d7000fb610a4b01221a6001e00023fb61fb6961
:100d80001800bd4608b080bda011002080110020d1
:100d9000201000205c1100201c1000208c1100206d
:100da00080b586b000af786039604f4b1b68002b70
:100db00001d172b6fee73b68802212061a437b68b7
:100dc0001a607b68db687b617b69002b01d172b69e
:100dd000fee77b681b693b617b685b687a689268a9
:100de0009a607b689b687a6852685a603b695b6866
:100df0007a689a4203d17b689a683b695a607b683b
:100e000000221a613b691b685a1e3b691a607b69a4
:100e10005b69fb607b699b687a69d2689a607b69d1
:100e2000db687a6992685a60fb685a687b690433a8
:100e30009a4203d17b69da68fb685a607b690022b9
:100e40005a61fb681b685a1efb681a607b69da6a84
:100e5000264b1b689a4203d97b69da6a234b1a60d6
:100e60007b69da6a22491300db009b1a9b00cb18ce
:100e700004331b68bb607b69ba689a60bb689a6878
:100e80007b69da60bb689b687a6904325a607b6967
:100e90001a1dbb689a607b69da6a1300db009b1a33
:100ea0009b00134a9a187b695a617b69da6a104978
:100eb0001300db009b1a9b0059587b69da6a481cb7
:100ec0000b491300db009b1a9b0058507b69da6ac0
:100ed000084b1b68db6a9a4202d9074b01221a6051
:100ee000c046bd4606b080bda01100208011002084
:100ef000201000201c1000208c11002080b582b032
:100f000000af78607b68002b01d172b6fee704f079
:100f1000f5fc074b1a687b681a60064b1a687b68f9
:100f20005a6004f0fdfcc046bd4602b080bdc0461c
:100f3000901100207c11002080b582b000af786055
:100f4000054b1a687b681a60044b1a687b685a6004
:100f5000c046bd4602b080bd901100207c1100202b
:100f600080b586b000af786039607b68002b01d116
:100f700072b6fee73b68002b01d172b6fee704f0c3
:100f8000bdfc1b4b1b683b617b685b683a69d31aed
:100f9000fb607b681a68174b1b689a420ad07b6813
:100fa0005b683a699a4205d301237b613b68002262
:100fb0001a6016e03b681b68fa689a420cd23b68dc
:100fc0001a68fb68d21a3b681a607b681800fff742
:100fd000b3ff00237b6104e03b6800221a60012319
:100fe0007b6104f09dfc7b691800bd4606b080bda6
:100ff0007c1100209011002080b500af024b01222f
:101000001a60c046bd4680bd8c11002080b582b0fc
:1010100000af786000f03af8fce780b582b000af2e
:1010200000237b600ce07a681300db009b1a9b00b6
:10103000104a9b18180004f0f1fd7b6801337b60b7
:101040007b68082befd90c4b180004f0e7fd0b4b25
:10105000180004f0e3fd0a4b180004f0dffd094b13
:10106000054a1a60084b054a1a60c046bd4602b0e0
:1010700080bdc046201000201c1100203811002027
:101080005c110020541100205811002080b500afe1
:10109000c046bd4680bd80b500af094b1b681b68cc
:1010a000002b04d1074b012252421a6005e0044b89
:1010b0001b68db681a68034b1a60c046bd4680bdda
:1010c000541100209811002080b582b000af044b6d
:1010d0001b687b607b681800bd4602b080bdc046bf
:1010e0001c10002080b584b000af78600023fb6046
:1010f0007b68002b05db7b68002b02dc034b1b6845
:10110000fb60fb681800bd4604b080bd1c100020c9
:1011100080b586b000af78607b683b6100237b615f
:101120007b68002b00d179e03b69da6a3e4b1b6893
:10113000db6a9a4269d23b699b69002b06db3a4b1a
:101140001b68db6a0922d21a3b699a613b695969bb
:101150003b69da6a1300db009b1a9b00334a9b1839
:1011600099424ad13b690433180004f0defd2e4b4e
:101170001b68da6a3b69da623b69da6a2c4b1b68e6
:101180009a4203d93b69da6a294b1a603b69da6ae9
:1011900026491300db009b1a9b00cb1804331b6805
:1011a000fb603b69fa689a60fb689a683b69da60a1
:1011b000fb689b683a6904325a603b691a1dfb68f8
:1011c0009a603b69da6a1300db009b1a9b00174a9e
:1011d0009a183b695a613b69da6a14491300db00cb
:1011e0009b1a9b0059583b69da6a481c0f49130047
:1011f000db009b1a9b00585004e00b4b1b68da6a1b
:101200003b69da6201237b6108e03b691a6c064b9b
:101210001b68db6a9a4201d201237b617b6918005b
:10122000bd4606b080bdc0461c1000202010002026
:101230008011002080b586b000af78607b683b618c
:1012400000237b617b68002b6cd0394b1b683a69ab
:101250009a4201d072b6fee73b695b6c002b01d16c
:1012600072b6fee73b695b6c5a1e3b695a643b6988
:10127000da6a3b691b6c9a4254d03b695b6c002b69
:1012800050d13b690433180004f04ffd3b691a6ce0
:101290003b69da623b69db6a0922d21a3b699a61cf
:1012a0003b69da6a234b1b689a4203d93b69da6ac5
:1012b000204b1a603b69da6a1f491300db009b1a56
:1012c0009b00cb1804331b68fb603b69fa689a608b
:1012d000fb689a683b69da60fb689b683a6904328c
:1012e0005a603b691a1dfb689a603b69da6a130011
:1012f000db009b1a9b00104a9a183b695a613b69b4
:10130000da6a0d491300db009b1a9b0059583b69b0
:10131000da6a481c08491300db009b1a9b005850ee
:1013200001237b617b691800bd4606b080bdc046c5
:101330001c100020801100202010002080b588b0f3
:1013400000af786039607b68bb6101237b617b689b
:10135000002b00d180e0bb695b6c002b01d172b621
:10136000fee7bb691b6c3a689a4202d93b68fb6195
:1013700002e0bb691b6cfb61bb69db6afa699a42dc
:101380006ad0bb695b6c7a699a4265d1344b1b6841
:10139000ba699a4201d172b6fee7bb69db6a3b616a
:1013a000bb69fa69da62bb699b69002b04dbfb69e4
:1013b0000922d21abb699a61bb6959693a6913005b
:1013c000db009b1a9b00274a9b18994244d1bb69ba
:1013d0000433180004f0a9fcbb69da6a224b1b68cd
:1013e0009a4203d9bb69da6a1f4b1a60bb69da6a91
:1013f0001c491300db009b1a9b00cb1804331b68ad
:10140000fb60bb69fa689a60fb689a68bb69da603e
:10141000fb689b68ba6904325a60bb691a1dfb6895
:101420009a60bb69da6a1300db009b1a9b000d4ac5
:101430009a18bb695a61bb69da6a0a491300db0072
:101440009b1a9b005958bb69da6a481c054913006e
:10145000db009b1a9b005850c046bd4608b080bdbb
:101460001c100020201000208011002080b582b0c8
:1014700000af084b1b689b697b60064b1b68da6af0
:10148000044b1b6809218a1a9a617b681800bd46c3
:1014900002b080bd1c10002080b582b000af084ba8
:1014a0001b687b607b68002b04d07b685b6c5a1cdc
:1014b0007b685a647b681800bd4602b080bdc04698
:1014c0001c10002080b586b000af786039601c4bde
:1014d0001b687b611b4b1b683b611b4b1b68fb60e4
:1014e0001a4b1b680433180004f01ffc7a697b68f0
:1014f000d318bb60154b1b68ba685a60ba687b6921
:101500009a4208d2114b1b681a1dfb681100180083
:1015100004f0d5fb0fe00d4b1b681a1d3b69110051
:10152000180004f0ccfb0a4b1b68ba689a4202d23e
:10153000074bba681a60c046bd4606b080bdc046bb
:101540007c11002054110020581100201c10002094
:101550009811002080b582b000af184b00221a60ad
:10156000174b00221a60174b00221a60164b0022fc
:101570001a60164b00221a60154b00221a600023d5
:101580007b6007e0134b7a6892000021d1507b68a2
:1015900001337b607b68002bf4dd0f4b00221a6067
:1015a0000e4b00221a600e4b00221a600d4b0022d7
:1015b0001a60c046bd4602b080bdc0461c10002067
:1015c000781100207c11002080110020841100205f
:1015d000881100208c11002090110020941100200f
:0815e00098110020a011002069
:020000040000fa
:1015e800b0b584b000af786039600123fb607b68d8
:1015f800bb60bb68002b01d172b6fee7bb68002b4d
:1016080000d16ae0bb68db6c002b66d0bb681a6d42
:10161800bb68db6c0024150c190ca8b2002804d197
:1016280088b2002813d0101c04e089b200290dd11b
:10163800291c181c92b29bb25a4383b289b24b43fd
:10164800120c9b181b149bb2002b00d00124231ee4
:1016580043d104f04ff9bb681a68bb68d96cbb6802
:101668001b6d4b43d218bb689a60bb6800229a6412
:10167800bb681a68bb685a60bb681a68bb68db6cd1
:10168800591ebb681b6d4b43d218bb68da60bb6838
:101698005422ff219954bb685522ff2199543b6875
:1016a800002b0dd1bb681b69002b13d0bb6810330e
:1016b8001800fff7a5fa031e0cd004f00bf909e097
:1016c800bb681033180004f0a5fabb682c33180067
:1016d80004f0a0fa04f020f901e00023fb60fb68a5
:1016e800002b01d172b6fee7fb681800bd4604b0b6
:1016f800b0bdf0b58bb002aff860b960fb1d1a70d1
:101708000023fb61fb68002b47d00020bb68190c45
:10171800bb681e1cfb681b0cfa68151c8ab2002ae1
:1017280005d19ab2002a13d0191c341c03e09bb2cd
:10173800002b0cd12c1cb3b2aab25a43a3b289b263
:101748004b43120c9b181b149bb2002b00d001209a
:10175800031e22d1fb68ba68534359331dd8fb686e
:10176800ba685343bb61bb695833180001f03afead
:101778000300fb61fb69002b14d0fb697b617b696b
:1017880058337b61fb1d1c787a69b968f868fb6976
:101798000093230000f00bf804e0fb69002b01d153
:1017a80072b6fee7fb691800bd4609b0f0bd80b50a
:1017b80084b000aff860b9607a601a00fb1c1a7038
:1017c800bb68002b03d1bb69ba691a6002e0bb6928
:1017d8007a681a60bb69fa68da64bb69ba681a651c
:1017e800bb6901211800fff7fbfec046bd4604b0e7
:1017f80080bd80b582b000af78607b68002b0ed0ca
:101808007b6800229a607b6800221a607b6800224d
:10181800da60786800230022002100f020f8c04632
:10182800bd4602b080bd80b586b000af0200fb1d8a
:101838001a7001237b6100233b61fb1d1a7839690b
:101848007b691800fff755ff0300fb60fb68180071
:10185800fff7cffffb681800bd4606b080bd80b516
:101868008ab000aff860b9607a603b6000237b62a1
:10187800fb683b623b6a002b01d172b6fee7bb688e
:10188800002b03d13b6a1b6d002b01d1012300e023
:101898000023002b01d172b6fee73b68022b03d16f
:1018a8003b6adb6c012b01d1012300e00023002bf4
:1018b80001d172b6fee704f01df83b6a9a6c3b6ae8
:1018c800db6c9a4202d33b68022b1ed13a68b96896
:1018d8003b6a180000f0c3fc0300fb613b6adb6a4b
:1018e800002b09d03b6a2c331800fff789f9031e37
:1018f80007d003f0efff04e0fb69002b01d003f0f1
:10190800e9ff04f009f801235be07b68002b03d1b1
:1019180004f002f8002354e07b6a002b06d114235c
:10192800fb181800fff704fb01237b6203f0f4ffa8
:10193800fef73cfe03f0deff3b6a54229b5c5bb281
:10194800013303d13b6a5422002199543b6a552242
:101958009b5c5bb2013303d13b6a55220021995449
:1019680003f0daff3a1d1423fb1811001800fff7e3
:10197800f3fa031e1ed13b6a180000f08efd031e09
:1019880011d03b6a10337a6811001800fff7d4f8b9
:101998003b6a180000f0f4fcfef714fe031e8ad11f
:1019a80003f098ff87e73b6a180000f0e9fcfef7b0
:1019b80009fe80e73b6a180000f0e2fcfef702fe31
:1019c80000231800bd460ab080bd90b58bb000afab
:1019d800f860b9607a603b60fb683b623b6a002b49
:1019e80001d172b6fee7bb68002b03d13b6a1b6dc1
:1019f800002b01d1012300e00023002b01d172b696
:101a0800fee73b68022b03d13b6adb6c012b01d15b
:101a1800012300e00023002b01d172b6fee703f09a
:101a280093ff0300fb613b6a9a6c3b6adb6c9a424a
:101a380002d33b68022b43d11b243b193a6a552138
:101a4800525c1a703b6a9b6c7b613a68b9683b6a66
:101a5800180000f004fc3b191b785bb2013311d16c
:101a68003b6adb6a002b28d03b6a2c331800fff74f
:101a7800c7f8031e21d07b68002b1ed07b6801228b
:101a88001a601ae0fef7b0fe03003b611b217b18c9
:101a98001b785bb23a699a420fd97b181b785bb204
:101aa8007f2b01d172b6fee71b23fb181b7801338d
:101ab800dbb259b23b6a5522995401237b6201e09b
:101ac80000237b62fb69180003f044ff7b6a18005f
:101ad800bd460bb090bd80b588b000af7860396066
:101ae8007b68bb61bb69002b01d172b6fee7bb699d
:101af8001b6d002b01d072b6fee7bb691b68002b7b
:101b080003d1bb699b68002b01d1012300e00023ae
:101b1800002b01d172b6fee703f016ff03007b61cc
:101b2800bb699b6c3b61bb69db6c3a699a423ed2ec
:101b38000f203b18ba695521525c1a703b695a1c30
:101b4800bb699a643b181b785bb2013311d1bb693e
:101b5800db6a002b28d0bb692c331800fff750f83c
:101b6800031e21d03b68002b1ed03b6801221a605f
:101b78001ae0fef739fe0300bb600f217b181b78c3
:101b88005bb2ba689a420fd97b181b785bb27f2b7d
:101b980001d172b6fee70f23fb181b780133dbb2c5
:101ba80059b2bb69552299540123fb6101e0002316
:101bb800fb617b69180003f0cdfefb691800bd4688
:101bc80008b080bd80b58ab000aff860b9607a60af
:101bd80000237b62fb683b623b6a002b01d172b633
:101be800fee7bb68002b03d13b6a1b6d002b01d1bc
:101bf800012300e00023002b01d172b6fee703f0b9
:101c080079fe3b6a9b6cfb61fb69002b1ad0ba68b2
:101c18003b6a1100180000f08dfbfb695a1e3b6af5
:101c28009a643b6a1b69002b08d03b6a1033180082
:101c3800fef7e6ff031e01d003f04cfe03f06cfe36
:101c4800012362e07b68002b03d103f065fe0023cb
:101c58005be07b6a002b06d11423fb181800fff702
:101c680067f901237b6203f057fefef79ffc03f040
:101c780041fe3b6a54229b5c5bb2013303d13b6a51
:101c88005422002199543b6a55229b5c5bb2013374
:101c980003d13b6a55220021995403f03dfe3a1db9
:101ca8001423fb1811001800fff756f9031e1ed164
:101cb8003b6a180000f0c2fb031e11d03b6a2c33ac
:101cc8007a6811001800fef737ff3b6a180000f029
:101cd80057fbfef777fc031e91d103f0fbfd8ee75f
:101ce8003b6a180000f04cfbfef76cfc87e73b6a88
:101cf800180000f045fbfef765fc3b6a180000f091
:101d08009dfb031e00d17ae700231800bd460ab0e8
:101d180080bd80b58ab000af7860396000237b62ef
:101d28007b68fb6100233b62fb69002b01d172b623
:101d3800fee7fb691b6d002b01d072b6fee703f0ce
:101d4800d9fdfb699b6cbb61bb69002b1dd0bb69ce
:101d58005a1efb699a64fb691b68002b04d1fff7c4
:101d680097fb0200fb699a60fb691b69002b08d08e
:101d7800fb6910331800fef743ff031e01d003f080
:101d8800a9fd03f0c9fd012386e03b68002b03d1c0
:101d980003f0c2fd00237fe07b6a002b06d10c23f1
:101da800fb181800fff7c4f801237b6203f0b4fda9
:101db800fef7fcfb03f09efdfb6954229b5c5bb2c3
:101dc800013303d1fb69542200219954fb69552240
:101dd8009b5c5bb2013303d1fb6955220021995406
:101de80003f09afd3a000c23fb1811001800fff7c6
:101df800b3f8031e2ed1fb69180000f01ffb031e69
:101e080021d0fb691b68002b0ad103f073fdfb6925
:101e18009b681800fff778f903003b6203f07cfd2c
:101e2800fb692c333a6811001800fef785fefb6940
:101e3800180000f0a5fafef7c5fb031e00d07ee7e8
:101e480003f048fd7be7fb69180000f099fafef7fc
:101e5800b9fb74e7fb69180000f092fafef7b2fbd1
:101e6800fb69180000f0eafa031e00d167e73b6a35
:101e7800002b10d003f03efdfb69180000f0d9f9e3
:101e880003007b61fb699b687a6911001800fff702
:101e980051fa03f041fd00231800bd460ab080bd89
:101ea80080b58ab000aff860b9607a6000237b62c1
:101eb800fb683b623b6a002b01d172b6fee7bb6848
:101ec800002b03d13b6a1b6d002b01d1012300e0dd
:101ed8000023002b01d172b6fee703f00bfd3b6a2d
:101ee8009b6cfb61fb69002b1cd03b6adb68bb6108
:101ef800ba683b6a1100180000f01cfa3b6aba691c
:101f0800da603b6adb6a002b08d03b6a2c33180086
:101f1800fef776fe031e01d003f0dcfc03f0fcfca8
:101f2800012362e07b68002b03d103f0f5fc00235a
:101f38005be07b6a002b06d11023fb181800fef724
:101f4800f7ff01237b6203f0e7fcfef72ffb03f0aa
:101f5800d1fc3b6a54229b5c5bb2013303d13b6ae0
:101f68005422002199543b6a55229b5c5bb2013391
:101f780003d13b6a55220021995403f0cdfc3a1d48
:101f88001023fb1811001800fef7e6ff031e1ed1f0
:101f98003b6a180000f052fa031e11d03b6a2c333a
:101fa8007a6811001800fef7c7fd3b6a180000f0b8
:101fb800e7f9fef707fb031e8fd103f08bfc8ce7d4
:101fc8003b6a180000f0dcf9fef7fcfa85e73b6a8b
:101fd800180000f0d5f9fef7f5fa3b6a180000f092
:101fe8002dfa031e00d178e700231800bd460ab079
:101ff80080bd90b58bb000aff860b9607a60fb68bf
:102008003b623b6a002b01d172b6fee7bb68002b2e
:1020180003d13b6a1b6d002b01d1012300e0002393
:10202800002b01d172b6fee703f08efc0300fb61c2
:102038003b6a9b6cbb61bb69002b44d017243b19de
:102048003a6a5421525c1a70ba683b6a1100180047
:1020580000f070f9bb695a1e3b6a9a643b191b78f9
:102068005bb2013311d13b6a1b69002b28d03b6a54
:1020780010331800fef7c4fd031e21d07b68002b27
:102088001ed07b6801221a601ae0fef7adfb030040
:102098003b6117217b181b785bb23a699a420fd9ca
:1020a8007b181b785bb27f2b01d172b6fee7172332
:1020b800fb181b780133dbb259b23b6a542299549e
:1020c80001237b6201e000237b62fb69180003f0b7
:1020d80041fc7b6a1800bd460bb090bd80b586b048
:1020e80000af786039607b683b613b69002b01d1a8
:1020f80072b6fee73b68002b03d13b691b6d002bd2
:1021080001d1012300e00023002b01d172b6fee7c4
:102118003b691b6d002b01d172b6fee703f014fc7e
:102128000300fb603b699b6c002b0ed03b69db68ae
:10213800bb603a683b691100180000f0fbf83b6986
:10214800ba68da6001237b6101e000237b61fb68e8
:10215800180003f0fffb7b691800bd4606b080bd80
:1021680080b584b000af78607b68002b01d172b66f
:10217800fee703f0bffb7b689b6cfb6003f0ccfbc6
:10218800fb681800bd4604b080bd80b584b000afc0
:1021980078607b68fb60fb68002b01d172b6fee7b4
:1021a80003f0a8fbfb68da6cfb689b6cd31abb6076
:1021b80003f0b2fbbb681800bd4604b080bd80b513
:1021c80084b000af78607b68fb60fb68002b01d1ae
:1021d80072b6fee7fb689b6cbb60bb681800bd4627
:1021e80004b080bd80b584b000af78607b68fb60c8
:1021f800fb68002b01d172b6fee7fb68180001f0fe
:10220800e5f9c046bd4604b080bd80b582b000afd8
:1022180078607b681b6d1800bd4602b080bd80b534
:1022280082b000af78607b68db6c1800bd4602b0f6
:1022380080bd80b584b000af78607b68db6a002b16
:1022480006d07b689b6b1b680922d31afb6001e0f0
:102258000023fb60fb681800bd4604b080bd80b554
:1022680086b000aff860b9607a6000237b61fb68d4
:102278009b6c3b61fb681b6d002b0ed1fb681b68d8
:10228800002b4ed1fb689b681800fef7cfff0300b8
:102298007b61fb6800229a6043e07b68002b19d1c0
:1022a800fb685868fb681a6dbb68190004f0d8f819
:1022b800fb685a68fb681b6dd218fb685a60fb689c
:1022c8005a68fb689b689a422bd3fb681a68fb68bc
:1022d8005a6026e0fb68d868fb681a6dbb6819006d
:1022e80004f0bef8fb68da68fb681b6d5b42d21825
:1022f800fb68da60fb68da68fb681b689a4207d2f9
:10230800fb689a68fb681b6d5b42d218fb68da6051
:102318007b68022b05d13b69002b02d03b69013b4e
:102328003b613b695a1cfb689a647b691800bd468f
:1023380006b080bd80b582b000af786039607b6838
:102348001b6d002b18d07b68da687b681b6dd21870
:102358007b68da607b68da687b689b689a4203d39b
:102368007b681a687b68da607b68d9687b681a6d55
:102378003b68180004f074f8c046bd4602b080bd42
:1023880080b584b000af786003f0b4fa0f23fb186f
:102398007a685521525c1a7013e07b68db6a002b5f
:1023a80016d07b682c331800fef72afc031e01d0d8
:1023b800fef71efe0f217b181b78013bdab27b1853
:1023c8001a700f23fb181b785bb2002be5dc00e0ca
:1023d800c0467b685522ff21995403f09dfa03f00b
:1023e80089fa0e23fb187a685421525c1a7013e09c
:1023f8007b681b69002b16d07b6810331800fef72a
:10240800fffb031e01d0fef7f3fd0e217b181b789e
:10241800013bdab27b181a700e23fb181b785bb2eb
:10242800002be5dc00e0c0467b685422ff2199546c
:1024380003f072fac046bd4604b080bd80b584b0d2
:1024480000af786003f056fa7b689b6c002b02d1d2
:102458000123fb6001e00023fb6003f05dfafb68e9
:102468001800bd4604b080bd80b584b000af786068
:102478007b68bb60bb68002b01d172b6fee7bb6806
:102488009b6c002b02d10123fb6001e00023fb6061
:10249800fb681800bd4604b080bd80b584b000afad
:1024a800786003f027fa7b689a6c7b68db6c9a4249
:1024b80002d10123fb6001e00023fb6003f02cfa4a
:1024c800fb681800bd4604b080bd80b584b000af7d
:1024d80078607b68bb60bb68002b01d172b6fee7f1
:1024e800bb689a6cbb68db6c9a4202d10123fb6023
:1024f80001e00023fb60fb681800bd4604b080bd06
:020000040000fa
:1025080080b500af00f0eafb0300044a9446634438
:102518005a425341dbb21800bd4680bdbfda40ffc6
:1025280080b500af3c2000f0adf8c046bd4680bd88
:1025380080b500af084b80225a61222003f078ff53
:10254800062002f03dfe044b80229a61222003f00f
:102558006fffc046bd4680bd0044004180b500af56
:10256800084b80225a61222003f062ff042002f007
:1025780027fe044b80229a61222003f059ffc046af
:10258800bd4680bd0044004180b500af084b8022a5
:102598005a61222003f04cff502002f011fe044b38
:1025a80080229a61222003f043ffc046bd4680bdc9
:1025b8000044004180b582b000affb1d00221a70b4
:1025c8000d4b80225a61222003f032ff052002f0d1
:1025d800f7fd02f01dfe03001a00fb1d1a70064be2
:1025e80080229a61222003f023fffb1d1b7818002c
:1025f800bd4602b080bdc0460044004180b582b0ef
:1026080000af0200fb1d1a70fff7beff0c4b8022c3
:102618005a61222003f00cff012002f0d1fdfb1dbe
:102628001b789bb2180002f0cbfd054b80229a6103
:10263800222003f0fdfec046bd4602b080bdc04664
:1026480000440041b0b584b000af0200fb1d1a7011
:102658000f257b1900221a707c19fff7abff0300c6
:10266800237028003b183918fa1d097812780a4394
:102678001a703b181b781800fff7c0ffc046bd460c
:1026880004b0b0bdb0b584b000af0200fb1d1a7035
:102698000f257b1900221a707c19fff78bff0300a6
:1026a8002370fb1d1b785bb2db435bb27a1912788f
:1026b80052b213405ab27b191a707b191b78180052
:1026c800fff79cffc046bd4604b0b0bd80b500af63
:1026d800084b80225a61222003f0aafe702002f0e3
:1026e8006ffd044b80229a61222003f0a1fec046b0
:1026f800bd4680bd0044004180b500af084b802234
:102708005a61222003f094fe802002f059fd044b08
:1027180080229a61222003f08bfec046bd4680bd10
:102728000044004180b500af00231800bd4680bdbd
:1027380090b585b000af78600f243b1900221a705d
:102748007b68194a934228d8184b80225a61222064
:1027580003f06efe032002f033fd3b1d02331b78ad
:102768009bb2180002f02cfd3b1d01331b789bb275
:10277800180002f025fd3b1d1b789bb2180002f0e3
:102788001ffd02f045fd03001a003b191a70074ba4
:1027980080229a61222003f04bfe0f23fb181b783e
:1027a8001800bd4605b090bdffff1f000044004162
:1027b80080b582b000af78600a00fb1c1a707b6895
:1027c8001d4a934234d8fff7b3fe1c4b80225a614e
:1027d800222003f02dfe022002f0f2fc3b1d023302
:1027e8001b789bb2180002f0ebfc3b1d01331b78f1
:1027f8009bb2180002f0e4fc3b1d1b789bb218004a
:1028080002f0defcfb1c1b789bb2180002f0d8fc1f
:102818000a4b80229a61222003f00afe442003f02a
:1028280007fefff7c7fe03001a0001231340f5d186
:10283800c046bd4602b080bdffff1f0000440041f6
:10284800b0b586b000aff860b960fb1d1a701725e7
:102858007b1900221a70fb68204a934234d8bb685f
:10286800002b31d0fb1d1b78002b2dd01c4b802258
:102878005a61222003f0dcfd032002f0a1fc0c24a5
:102888003b1902331b789bb2180002f099fc3b19e4
:1028980001331b789bb2180002f092fc3b191b789d
:1028a8009bb2180002f08cfcfb1d1a78bb68110063
:1028b800180002f0fdfc7b1901221a70084b8022d7
:1028c8009a61222003f0b4fd1723fb181b785a1ec7
:1028d8009341dbb21800bd4606b0b0bdffff1f0034
:1028e8000044004190b587b000aff860b960fb1da7
:1028f8001a701723fb1800221a70fb68274a9342a4
:1029080045d839e0fff714fe254b80225a61222072
:1029180003f08efd022002f053fc0c243b19023315
:102928001b789bb2180002f04bfc3b1901331b7853
:102938009bb2180002f044fc3b191b789bb21800ac
:1029480002f03efcbb681b789bb2180002f038fc12
:10295800134b80229a61222003f06afdc046fff7dc
:1029680029fe03001a0001231340f8d1fb68013344
:10297800fb60bb680133bb60fb1d1b78fa1d591e49
:102988001170002bbed11723fb1801221a701723d0
:10299800fb181b781800bd4607b090bdffff1f004d
:1029a8000044004190b587b000aff860b960fb1de6
:1029b8001a701723fb1801221a70fb68364a9342d3
:1029c80059d8bb68002b56d0fb1d1b78002b52d062
:1029d800fb1d1b7801221340dbb2002b4bd1fff704
:1029e800a7fd42e02d4b80225a61222003f020fdf2
:1029f800ad2002f0e5fb1722bb181b78002b17d07f
:102a0800bb1800221a700c243b1902331b789bb2a6
:102a1800180002f0d5fb3b1901331b789bb2180054
:102a280002f0cefb3b191b789bb2180002f0c8fbe2
:102a3800bb680221180002f01dfc184b80229a6125
:102a4800222003f0f5fc442003f0f2fcfff7b2fd6e
:102a580003001a0001231340f5d1fb1dfa1d12785b
:102a6800023a1a70bb680233bb60fb1d1b78002b4f
:102a7800b8d1fff773fd1723fb181b785a1e934133
:102a8800dbb201225340dbb21a1c01231340dbb234
:102a98001800bd4607b090bdffff1f00004400416d
:102aa80080b582b000af78607b681b4a93422ed80d
:102ab800fff73efd194b80225a61222003f0b8fc33
:102ac800202002f07dfb3b1d02331b789bb21800cf
:102ad80002f076fb3b1d01331b789bb2180002f015
:102ae8006ffb3b1d1b789bb2180002f069fb0b4b78
:102af80080229a61222003f09bfc442003f098fc7a
:102b0800fff758fd03001a0001231340f5d1c04612
:102b1800bd4602b080bdc046ffff1f000044004113
:102b280080b582b000af78607b681b4a93422ed88c
:102b3800fff7fefc194b80225a61222003f078fc33
:102b4800522002f03dfb3b1d02331b789bb218005c
:102b580002f036fb3b1d01331b789bb2180002f0d4
:102b68002ffb3b1d1b789bb2180002f029fb0b4b77
:102b780080229a61222003f05bfc442003f058fc79
:102b8800fff718fd03001a0001231340f5d1c046d2
:102b9800bd4602b080bdc046ffff1f000044004193
:102ba80080b582b000af78607b681b4a93422ed80c
:102bb800fff7befc194b80225a61222003f038fc33
:102bc800d82002f0fdfa3b1d02331b789bb2180097
:102bd80002f0f6fa3b1d01331b789bb2180002f095
:102be800effa3b1d1b789bb2180002f0e9fa0b4b79
:102bf80080229a61222003f01bfc442003f018fc79
:102c0800fff7d8fc03001a0001231340f5d1c04692
:102c1800bd4602b080bdc046ffff1f000044004112
:102c280080b500affff784fc0d4b80225a6122204b
:102c380003f0fefbc72002f0c3fa094b80229a6119
:102c4800222003f0f5fb442003f0f2fbfff7b2fc6f
:102c580003001a0001231340f5d1c046bd4680bdcc
:102c68000044004190b585b000af0200fb1d1a700a
:102c78000e243b1900221a80174b80225a61222009
:102c880003f0d6fb902002f09bfa002002f098fa9d
:102c9800002002f095fafb1d1b789bb2180002f089
:102ca8008ffa02f0b5fa03001a003b19d2b21a7073
:102cb80002f0aefa03001a003b190133d2b21a70bf
:102cc800054b80229a61222003f0b2fb3b191b8836
:102cd8001800bd4605b090bd0044004180b582b0e3
:102ce80000af00237b60154b80225a61222003f03d
:102cf8009ffb9f2002f064fa02f08afa03001a0090
:102d08003b1d0233d2b21a7002f082fa03001a0095
:102d18003b1d0133d2b21a7002f07afa03001a008e
:102d28003b1dd2b21a70054b80229a61222003f013
:102d38007ffb7b681800bd4602b080bd004400419f
:020000040000fa
:102d480080b582b000af0200fb1d1a70fb1d1b7816
:102d58007f2b0ed8fb1d1b781a001f231340074931
:102d680001229a40130080228b50bff34f8fbff38c
:102d78006f8fc046bd4602b080bdc04600e100e08e
:102d880080b582b000af0200fb1d1a70fb1d1b78d6
:102d98007f2b0ad8fb1d1b781a001f2313400549f7
:102da80001229a40c0235b00ca50c046bd4602b00b
:102db80080bdc04600e100e080b500af2b4b1a6a29
:102dc8002a4b08210a431a62294b2a4a5a80c046cc
:102dd800274b5b78dbb25bb2002bf9db264b1a681a
:102de800254b01210a431a60c046234bdb690122a7
:102df8001340fad1204b14221a601f4b00225a604c
:102e0800c0461d4bdb6904221340fad11a4b9922a4
:102e1800da60194b1a68184b02210a431a60c04637
:102e2800154bdb6902221340fad1134b5b8b9bb223
:102e3800114a10210b439bb25383c0460e4bdb69ea
:102e480004221340fad10c4b80221a750a4b022235
:102e58001a75094b01221a750a20fff791ff0a20fb
:102e6800fff76effc046bd4680bdc0460004004067
:102e7800000c004015420000000c004280b500af75
:102e8800224b5b8b9bb21a008023db00134001d0de
:102e9800032338e01d4b5b8b9bb21a0080239b00f9
:102ea800134001d004232ee0184b5b8b9bb21a0011
:102eb80080235b00134001d0052324e0134b5b8b78
:102ec8009bb21a008023134001d006231be00f4b4e
:102ed8005b8b9bb21a004023134001d0072312e0fa
:102ee8000a4b5b8b9bb21a000223134001d00823c4
:102ef80009e0064b5b8b9bb21a000123134001d0fb
:102f0800092300e000231800bd4680bd000c0042e4
:102f180080b584b000af0200fb1d1a700e23fb18a9
:102f2800012252421a800d23fb1800221a70234beb
:102f380081221a76214bfa1d12785a62c0461f4b1d
:102f4800db6904221340fad1c0461c4b1b7edbb25e
:102f58001a000123134007d10e22bb181b88ba1888
:102f6800591e1180002bf0d1144b5b8b9bb21a00b9
:102f780004231a400d23fb18511e8a411a700f4b67
:102f88005a680e4bc02189020a435a60c0460b4b4f
:102f9800db6904221340fad10d23fb181b785a1e53
:102fa8009341dbb201225340dbb21a1c01231340c8
:102fb800dbb21800bd4604b080bdc046000c00421c
:102fc80080b582b000af0200fb1d1a70fb1d1b7894
:102fd800002b06d00b4b5a680a4b0b490a405a6023
:102fe80006e0084b5a68074b8021c9020a435a6019
:102ff800c046044bdb6904221340fad1c046bd46e3
:1030080002b080bd000c0042fffffbff80b500af9f
:103018000e4b1b7edbb21a000123134006d10b4b6b
:103028001b7edbb21a00022313400cd0074b5a68f0
:10303800064bc02189020a435a60c046034bdb692c
:1030480004221340fad1c046bd4680bd000c0042a0
:1030580080b584b000af0200fb1d1a700e23fb1868
:10306800012252421a801d4b83221a751b4bfa1dee
:1030780012785a62c046194bdb6904221340fad110
:10308800c046164b1b7edbb21a00012313400ed13b
:10309800124b1b7edbb21a000223134007d10e220b
:1030a800bb181b88ba18591e1180002be9d10b4b8d
:1030b8001b7edbb25bb2002b03dafff7dffe0300f7
:1030c80008e0064b5b8b9bb21a00042313405a1e80
:1030d8009341dbb21800bd4604b080bd000c00422d
:1030e80080b582b000afbb1d012252421a801b4b33
:1030f80083221a75194b5a68184b802149020a43d2
:103108005a60c046154b1b7edbb21a0001231340e0
:103118000dd1124b1b7edbb21a000223134006d1dd
:10312800bb1d1b88ba1d591e1180002bead10b4b01
:103138001b7edbb25bb2002b03dafff79ffe0300b6
:1031480008e0064b5b8b9bb21a00042313405a1eff
:103158009341dbb21800bd4602b080bd000c0042ae
:1031680080b584b000af0200fb1d1a700e23fb1857
:10317800012252421a801a4b01221a761849fb1d65
:1031880028221b788b54c046154bdb690422134058
:10319800fad1c046124b1b7edbb21a000123134042
:1031a80007d10e22bb181b88ba18591e1180002b94
:1031b800f0d10b4b1b7edbb25bb2002b03dafff7bf
:1031c8005dfe030008e0064b5b8b9bb21a000423ec
:1031d80013405a1e9341dbb21800bd4604b080bdaf
:1031e800000c004280b584b000af78600e23fb1855
:1031f800012252421a807b68002b25d0164b802270
:103208001a76c046144b1b7edbb21a000223134009
:1032180007d10e22bb181b88ba18591e1180002b23
:10322800f0d10d4a2823d35cdab27b681a700a4bb6
:103238001b7edbb25bb2002b08dafff71ffe030030
:103248005a1e9341dbb202e0002300e0012318007c
:10325800bd4604b080bdc046000c004280b584b0b5
:1032680000af78600a00bb1c1a800e23fb180122ed
:1032780052421a807b68002b47d0bb1c1b88002b4e
:1032880043d03ae0244b01221a767b685a1c7a60b4
:10329800214a19782823d154c0461f4bdb690422e0
:1032a8001340fad1c0461c4b1b7edbb21a00012327
:1032b800134007d10e22bb181b88ba18591e11805b
:1032c800002bf0d1144b1b7edbb25bb2002b06da6d
:1032d800fff7d4fd03005a1e9341dbb218e00e4bf2
:1032e8005b8b9bb21a000423134001d000230fe02c
:1032f8000e23fb18012252421a80bb1c1b88ba1ce1
:10330800591e1180002bbdd101e0002300e00123ec
:103318001800bd4604b080bd000c004280b584b0e2
:1033280000af78600a00bb1c1a800e23fb1801222c
:1033380052421a807b68002b4ad0bb1c1b88002b8a
:1033480046d03de0264b80221a76c046244b1b7e91
:10335800dbb21a000223134007d10e22bb181b88c8
:10336800ba18591e1180002bf0d11d497b685a1cd0
:103378007a6028228a5cd2b21a70bb1c1b88002b88
:103388000cd0174b5a68164b802189020a435a60a1
:10339800c046134bdb6904221340fad1104b1b7e45
:1033a800dbb25bb2002b06dafff768fd03005a1e9a
:1033b8009341dbb20fe00e23fb18012252421a8020
:1033c800bb1c1b88ba1c591e1180002bbad101e006
:1033d800002300e001231800bd4604b080bdc046ac
:0433e800000c004293
:020000040000fa
:1033ec0080b588b000af786000237b617b68002bd0
:1033fc0021d00823db437a689a421ad808227b68ca
:10340c009b187b607b680722134014d07b680722d3
:10341c0013400822d31a3b613b69db437a689a421a
:10342c0004d87a683b69d3187b6004e000237b6086
:10343c0001e000237b60fdf7b7f85c4b1b68002ba9
:10344c0001d100f069f97b68002b00daa0e07b6801
:10345c00002b00d19ce0564b1b687a689a4200d92d
:10346c0096e0544bbb61534b1b68fb61fa69524ba2
:10347c009a4205d3fa69514b9a4201d8012300e0d4
:10348c000023002b15d172b6fee7fb69bb61fb690b
:10349c001b68fb61fa69484b9a4205d3fa69474ba2
:1034ac009a4201d8012300e00023002b01d172b60f
:1034bc00fee7fb695b687a689a4203d9fb691b6873
:1034cc00002be2d1394b1b68fa699a4260d0bb6978
:1034dc001b6808229b187b617a69374b9a4205d38b
:1034ec007a69364b9a4201d8012300e00023002b65
:1034fc0001d172b6fee7fb691a68bb691a60fb69f9
:10350c005b687a689a4201d972b6fee7fb695a6821
:10351c007b68d21a08235b009a4219d9fa697b6836
:10352c00d318fb60fb680722134001d072b6fee78c
:10353c00fb695a687b68d21afb685a60fb697a6827
:10354c005a60bb691a68fb681a60bb69fa681a6032
:10355c00174b1a68fb695b68d21a154b1a60144b2f
:10356c001a68174b1b689a4203d2114b1a68144bfa
:10357c001a60fb695b68802212061a43fb695a6069
:10358c00fb6900221a600f4b1b685a1c0d4b1a600a
:10359c00fdf716f87b690722134001d072b6fee7df
:1035ac007b691800bd4608b080bdc04608100020dd
:1035bc000c1000200010002000000020ff0f002045
:1035cc00101000201410002080b584b000af78607b
:1035dc007b68fb607b68002b48d008235b42fa6851
:1035ec00d318fb60fb68bb60ba68224b9a4205d3c8
:1035fc00ba68214b9a4201d8012300e00023002b2a
:10360c0001d172b6fee7bb685b68002b01db72b6ba
:10361c00fee7bb681b68002b01d072b6fee7bb68e7
:10362c005b68db0f1a1c01231340dbb2002b1dd08f
:10363c00bb681b68002b19d1bb685b685b005a0820
:10364c00bb685a60fcf7b0ffbb685a680b4b1b6831
:10365c00d2180a4b1a60bb68180000f0b5f8084b7a
:10366c001b685a1c064b1a60fcf7aaffc046bd46e5
:10367c0004b080bd00000020ff0f00200c100020c3
:10368c001810002080b500af024b1b681800bd4617
:10369c0080bdc0460c10002080b500af024b1b68eb
:1036ac001800bd4680bdc0461010002080b500af8c
:1036bc00c046bd4680bd80b584b000af786039602f
:1036cc000023fb607b68002b0bd0796801235842e8
:1036dc0002f0c2fc03001a003b68934201d901239b
:1036ec0000e00023002b12d17b683a68534318008a
:1036fc00fff776fe0300fb60fb68002b07d07b68ae
:10370c003a685a43fb680021180002f0b1fefb68ce
:10371c001800bd4604b080bd80b584b000af8023d6
:10372c005b01bb60234bfb60fb68072213400cd092
:10373c00fb680733fb60fb6807229343fb60ba68a6
:10374c00fb68d21a1b4bd318bb60fa681a4b1a6071
:10375c00194b00225a60fa68bb68d3187b600822a8
:10376c007b689b1a7b607b68072293437b607a683b
:10377c00124b1a60114b1b6800225a600f4b1b68ce
:10378c0000221a60fb683b603b687a68d21a3b687f
:10379c005a600a4b1a683b681a603b685a68084bb7
:1037ac001a603b685a68074b1a60c046bd4604b0a5
:1037bc0080bdc04600000020001000200810002032
:1037cc00101000200c10002080b584b000af786081
:1037dc00304bfb6002e0fb681b68fb60fb681b68fe
:1037ec007a689a42f7d8fa682a4b9a420ed0fa684d
:1037fc00294b9a4205d3fa68284b9a4201d80123e7
:10380c0000e00023002b01d172b6fee7fb68bb6021
:10381c00fb685b68ba68d3187a689a4208d1fb686f
:10382c005a687b685b68d218fb685a60fb687b60df
:10383c007b68bb607b685b68ba68d218fb681b68e6
:10384c009a4218d1fb681a68154b1b689a420dd026
:10385c007b685a68fb681b685b68d2187b685a6087
:10386c00fb681b681a687b681a6008e00c4b1a68c6
:10387c007b681a6003e0fb681a687b681a60fa6858
:10388c007b689a4202d0fb687a681a60c046bd46d3
:10389c0004b080bd0010002000000020ff0f0020ad
:1038ac000810002080b586b000af786000233b6123
:1038bc000023fb6001235b42bb60fcf775fe224bcf
:1038cc001b687b617b69002b1bd015e03b690133c6
:1038dc003b617b695b68fa689a4202d27b695b68e0
:1038ec00fb607b695b68ba689a4202d97b695b684a
:1038fc00bb607b691b687b61144b1b687a699a42bd
:10390c00e4d1fcf75dfe7b68fa685a607b68ba68a4
:10391c009a607b683a69da6001f0eaff0c4b1a682e
:10392c007b681a600b4b1a687b685a610a4b1a68e1
:10393c007b689a61094b1a687b681a6101f0eaff8f
:10394c00c046bd4606b080bd001000200810002007
:10395c000c10002014100020181000201010002053
:10396c0080b500af084b00221a60084b00221a6089
:10397c00074b00221a60074b00221a60064b0022ec
:10398c001a60c046bd4680bd081000200c100020f7
:0c399c0010100020141000201810002053
:020000040000fa
:1039a80080b582b000affb1d00221a70184b802230
:1039b80052009a61222002f03bfd164b180002f0db
:1039c80037fd134b802252005a61222002f030fd4d
:1039d800052001f0f5fb01f01bfc03001a00fb1d9c
:1039e8001a70fb1d1b78fe22134005d0012001f040
:1039f800e7fb012001f0e4fb054b802252009a61ad
:103a0800222002f015fdc046bd4602b080bdc0466a
:103a18000044004192760a0080b582b000af0200ef
:103a2800fb1d1a700d4b802252005a61222002f0b1
:103a3800fffc012001f0c4fbfb1d1b789bb21800a2
:103a480001f0befb054b802252009a61222002f051
:103a5800effcc046bd4602b080bdc04600440041f0
:103a680080b582b000affb1d00221a700e4b802279
:103a780052005a61222002f0dbfc052001f0a0fb75
:103a880001f0c6fb03001a00fb1d1a70064b8022ca
:103a980052009a61222002f0cbfcfb1d1b78180013
:103aa800bd4602b080bdc0460044004180b582b02a
:103ab80000af0200bb1d1a807b1d0a1c1a70124b36
:103ac800802252005a61222002f0b2fc7b1d1b7832
:103ad8009bb2180001f074fbbb1d01331b789bb22d
:103ae800180001f06dfbbb1d1b789bb2180001f09c
:103af80067fb054b802252009a61222002f098fc55
:103b0800c046bd4602b080bd0044004180b582b0c9
:103b180000af0200bb1d1a807b1d0a1c1a70144bd3
:103b2800802252005a61222002f082fc022001f019
:103b380047fbbb1d01331b789bb2180001f040fb0b
:103b4800bb1d1b789bb2180001f03afb7b1d1b784c
:103b58009bb2180001f034fb054b802252009a6199
:103b6800222002f065fcc046bd4602b080bdc046ba
:103b78000044004190b585b000af0200bb1d1a801b
:103b88000f243b1900221a70144b802252005a61ec
:103b9800222002f04dfc032001f012fbbb1d013373
:103ba8001b789bb2180001f00bfbbb1d1b789bb266
:103bb800180001f005fb01f02bfb03001a003b196c
:103bc8001a70064b802252009a61222002f030fcc3
:103bd8003b191b781800bd4605b090bd0044004154
:103be80080b584b000af02003960bb1d1a80204b3d
:103bf800802252005a61222002f01afc012001f0b2
:103c0800dffa802001f0dcfa022001f0d9fabb1dae
:103c180001331b789bb2180001f0d2fabb1d1b7848
:103c28009bb2180001f0ccfa0f23fb1800221a707f
:103c38000de03b685a1c3a601b789bb2180001f0f3
:103c4800bffa0f217b181a787b1801321a700f23dc
:103c5800fb181b781f2becd9054b802252009a6168
:103c6800222002f0e5fbc046bd4604b080bdc04638
:103c78000044004180b584b000af02003960bb1d2c
:103c88001a80204b802252005a61222002f0d0fb79
:103c9800012001f095fa802001f092fa032001f04a
:103ca8008ffabb1d01331b789bb2180001f088fa0c
:103cb800bb1d1b789bb2180001f082fa0f23fb187a
:103cc80000221a700ee001f0a3fa030019003b6805
:103cd8005a1c3a60cab21a700f217b181a787b18de
:103ce80001321a700f23fb181b781f2bebd9054bd9
:103cf800802252009a61222002f09afbc046bd46fb
:103d080004b080bd0044004180b584b000af396084
:103d18001100bb1d021c1a803b1d0a1c1a80214b76
:103d2800802252005a61222002f082fb012001f019
:103d380047fa402001f044fa022001f041fabb1d85
:103d480001331b789bb2180001f03afabb1d1b78af
:103d58009bb2180001f034fa0f23fb1800221a70e6
:103d68000de03b685a1c3a601b789bb2180001f0c2
:103d780027fa0f217b181a787b1801321a700f2343
:103d8800fb181b789bb23a1d12889a42e9d8054b5a
:103d9800802252009a61222002f04afbc046bd46aa
:103da80004b080bd0044004180b584b000af3960e4
:103db8001100bb1d021c1a803b1d0a1c1a80224bd5
:103dc800802252005a61222002f032fb012001f0c9
:103dd800f7f9402001f0f4f9032001f0f1f9bb1dd7
:103de80001331b789bb2180001f0eaf9bb1d1b7860
:103df8009bb2180001f0e4f90f23fb1800221a7097
:103e08000ee001f005fa030019003b685a1c3a60fd
:103e1800cab21a700f217b181a787b1801321a70ef
:103e28000f23fb181b789bb23a1d12889a42e8d8d8
:103e3800054b802252009a61222002f0f9fac0460e
:0c3e4800bd4604b080bdc04600440041ef
:020000040000fa
:103e540080b582b000af2020fff7c6fa03007b6074
:103e64007b68002b07d07b6800221a607b680433d0
:103e7400180001f0d1fe7b681800bd4602b080bd79
:103e840080b58ab000aff860b9607a603b60fb68c7
:103e94003b620023fb617b681b0e1b0601d072b6dc
:103ea400fee77b68002b01d172b6fee7fcf780fbce
:103eb4003b6a1b68bb61ba68fb681100180000f01c
:103ec40032f9ba69bb6813437a6813407a689a4234
:103ed4000dd1ba69bb6813437b623b6a1b687a687d
:103ee400d2431a403b6a1a6000233b6014e03b68eb
:103ef400002b0cd03b6a181d7b68a022d20413430c
:103f04003a681900fcf738fe00237b6204e03b6a40
:103f14001b687b620123fb61fcf756fb03007b619a
:103f24003b68002b27d07b69002b01d101f0d4fc26
:103f3400fdf79afa03007b627a6a80239b0413409c
:103f440015d101f0d9fc3b6a1b687b627b6a7a68f5
:103f540013407a689a4206d13b6a1b687a68d24356
:103f64001a403b6a1a6001f0d9fc0123fb617b6aa9
:103f74001b021b0a7b627b6a1800bd460ab080bd27
:103f840080b58cb000aff860b9607a603b60fb68c4
:103f94007b620023bb6200233b62fb68002b01d1e0
:103fa40072b6fee7bb681b0e1b0601d072b6fee7b5
:103fb400bb68002b01d172b6fee7fcf7f9fa7b6a05
:103fc4001b68fb613a68b968fb69180000f071f975
:103fd4000300bb61bb69002b0ed0fb69fb620023ad
:103fe400bb637b68002b2ad07b6a1b68ba68d24308
:103ff4001a407b6a1a6022e0bb6b002b04d1fb6978
:10400400fb6201233b621ae07b68002b04d0bb6a8d
:10401400802252041343bb623b68002b04d0bb6a6a
:104024008022d2041343bb627b6a181dba68bb6a40
:104034001343ba6b1900fcf79ffd0023fb62fcf7e6
:10404400c3fa03007b61bb6b002b2cd07b69002b74
:1040540001d101f041fcfdf707fa0300fb62fa6aa3
:1040640080239b0413401ad101f046fc7b6a1b6831
:10407400fb623a68b968fb6a180000f01af9031e7b
:1040840009d07b68002b06d07b6a1b68ba68d243d0
:104094001a407b6a1a6001233b6201f03ffcfb6a11
:1040a4001b021b0afb62fb6a1800bd460cb080bdf4
:1040b40080b584b000af786039607b68fb607b6852
:1040c400002b01d172b6fee73b681b0e1b0601d024
:1040d40072b6fee701f010fcfb681b68bb60fb686e
:1040e4001b683a68d2431a40fb681a6001f016fc58
:1040f400bb681800bd4604b080bd80b586b000af73
:1041040078607b687b6101f021fc03003b617b6983
:104114001b68fb603b69180001f01efcfb6818007b
:10412400bd4606b080bd80b58cb000af7860396004
:104134000023bb627b683b6200237b627b68002bad
:1041440001d172b6fee73b681b0e1b0601d072b6a6
:10415400fee73b6a0433fb61fb690833bb61fcf790
:1041640027fafb69db68fb623b6a1a683b681a43ff
:104174003b6a1a603de0fb6a5b687b61fb6a1b6813
:104184003b6100237b623b691b0e1b06fb603b69a2
:104194001b021b0a3b61fa688023db04134007d12e
:1041a4003b6a1b683a6913400bd001237b6208e029
:1041b4003b6a1b683a6913403a699a4201d1012368
:1041c4007b627b6a002b12d0fa6880235b04134065
:1041d40003d0ba6a3b691343bb623b6a1b68802203
:1041e40092041a43fb6a11001800fcf7d7fd7b699f
:1041f400fb62fa6abb699a42bdd13b6a1b68ba6a20
:10420400d2431a403b6a1a60fcf7def93b6a1b682a
:104214001800bd460cb080bd80b584b000af786096
:104224007b68fb60fb68002b01d172b6fee7fb687c
:104234000433bb60fcf7bcf90fe0bb68da68bb6809
:1042440008339a4201d172b6fee7bb68da6880236c
:104254009b0419001000fcf7a1fdbb681b68002b30
:10426400ebd1fcf7b1f9fb681800fff7b1f9c046d0
:10427400bd4604b080bd80b582b000af78603960bf
:104284003a687b6811001800fff74dffc046bd4631
:1042940002b080bd80b582b000af786039603a6802
:1042a4007b6811001800fff703ffc046bd4602b04b
:1042b40080bd80b586b000aff860b9607a60002335
:1042c4007b617b68002b06d1fb68ba6813400ad077
:1042d40001237b6107e0fb68ba681340ba689a421d
:1042e40001d101237b617b691800bd4606b080bd06
:020000040000fa
:1042f40080b500afa020fef70dfe03001800bd46f8
:1043040080bd90b5c5b000af02003e4b8821490086
:104314008c46bc4463441a70002384225200ba18a9
:104324001360384b882252009446bc446344197885
:1043340080235a000823fb18180002f09df8a020df
:10434400fef7e8fd031e57d087235b00fb1800220d
:104354001a804ae087235b00fb181b881b02842415
:1043640064003a191360a020fef7d4fd031e33d075
:104374003b1902331b785b005bb2022213405bb231
:104384006022524213435bb2dbb21800fef762feb6
:104394003b1901331b781800fef7e4fe3b191b7828
:1043a4001800fef7dffe80235a000823fb181100d3
:1043b4001800fef755ff0120fef704fefef728fe65
:1043c400c046a020fef7a6fd03001a0001235340b7
:1043d400dbb2002bf5d101e000230ee08721490078
:1043e4007b181a887b1801321a8087235b00fb181c
:1043f4001b88054a9342add901231800bd4645b038
:1044040090bdc046f7feffffff01000080b582b0fb
:1044140000af78600a00fb1c1a70a020fef77afd3a
:10442400031e31d03b1d02331b785b005bb20222ba
:1044340013405bb26022524213435bb2dbb21800fa
:10444400fef708fe3b1d01331b781800fef78afeb9
:104454003b1d1b781800fef785fefb1c1b7818001b
:10446400fef780fe0120fef7adfdfef7d1fdc0464c
:10447400a020fef74ffd03001a0001235340dbb2d6
:10448400002bf5d1012300e000231800bd4602b043
:1044940080bd90b585b000af78600f243b19002231
:1044a4001a70a020fef736fd031e36d03b1d0233e2
:1044b4001b785b005bb2022213405bb26022524263
:1044c40013435bb2dbb21800fef7c4fd3b1d01339e
:1044d4001b781800fef746fe3b1d1b781800fef7fc
:1044e40041fe3b1d02331b785b005bb2022213408a
:1044f4005bb25f22524213435bb2dbb21800fef799
:10450400a9fd3b191800fef76ffe0020fef75afdc7
:10451400fef77efd3b191b7800e000231800bd4622
:1045240005b090bd90b587b000aff860b960bb1d11
:104534001a801623fb18802252001a801223fb18bb
:1045440000221a801523fb1800221a70bb68002b66
:1045540000d17fe0bb1d1b88002b00d17ae016231d
:10456400fa18bb1d12881b889a4202d9bb1d1b88ee
:1045740001e080235b0016203a181380fb689bb28d
:10458400ff2213409ab212243b19802149008a1a4f
:104594001a803a183b1839190c881b8898b2a1b2b2
:1045a400884200d9231c13800c243b1902331b7846
:1045b4005b005bb2022213405bb26022524213439f
:1045c4005bb2dbb21800fef745fd3b1901331b78e3
:1045d4001800fef7c7fd3b191b781800fef7c2fd53
:1045e4001523fc181623fb181a88bb681100180041
:1045f400fef736fe030023700120fef7e3fcfef70e
:1046040007fdc046a020fef785fc03001a00012325
:104614005340dbb2002bf5d11523fb181b78002b7c
:1046240017d0bb1db91d16203a18098812888a1a9a
:104634001a803b181b88ba68d318bb603b181a88c9
:10464400fb68d318fb60bb1d1b88002b00d086e7da
:1046540000e0c0461523fb181b781800bd4607b0c0
:1046640090bdb0b586b000aff860b960bb1d1a80cc
:104674001623fb18802292001a801523fb180022af
:104684001a70bb68002b66d0bb1d1b88002b62d040
:104694001623fa18bb1d12881b889a4202d9bb1d27
:1046a4001b8801e080239b0016243a1913800c25f3
:1046b4007b1902331b785b005bb2022213405bb2ae
:1046c4006022524213435bb2dbb21800fef7c2fc15
:1046d4007b1901331b781800fef744fd7b191b7806
:1046e4001800fef73ffd7b1902331b785b005bb2b9
:1046f400022213405bb25f22524213435bb2dbb22d
:104704001800fef7a7fc3b191a88bb6811001800b3
:10471400fef706fe0020fef755fcfef779fc152394
:10472400fb181b78002b15d0bb1db91d3a1909883d
:1047340012888a1a1a803b191b88ba68d318bb607e
:104744003b191a88fb68d318fb60bb1d1b88002b20
:104754009ed100e0c0461523fb181b781800bd4607
:0447640006b0b0bd2e
:020000040000fa
:1047680080b500aff64bda69f54b08210a43da61e8
:10477800f449842280235b008b50f24984228023f1
:104788009b008b50ef4b10225a60ee4ac823012140
:10479800d154ec4ac9230121d154ea4a44230121c6
:1047a800d154e84ab423d35cdbb2e64a01210b4377
:1047b800d9b2b423d154e34ab423d35cdbb2e14a7f
:1047c80010210b43d9b2b423d154de4a3223d35c2f
:1047d800dbb2dc4a01210b43d9b23223d154d94b85
:1047e80008225a60d74a43230221d154d54b80224c
:1047f800d2029a60d34b802212039a60d14b802256
:1048080052039a60cf4b8022d2025a61cd4b80224c
:1048180012035a61cb4b802252035a61c94b802242
:10482800d2059a60c74b802212069a60c54b802237
:10483800d2059a61c34b802212069a61c14a5e234f
:104848000021d154bf4a5f230021d154bd4b80229f
:1048580052045a60bb4b802292045a60b94a5823ca
:104868000121d154b74a59230121d154b54a3c23d7
:10487800d35cdbb2b34a06210b43d9b23c23d154f3
:10488800b04a3c23d35cdbb2ae4a60210b43d9b2b9
:104898003c23d154ab4b802212025a60a94b802290
:1048a80052025a60a74b802292025a60a54a5023ae
:1048b8000121d154a34a51230121d154a14a3823bb
:1048c800d35cdbb29f4a02210b43d9b23823d154bf
:1048d8009c4a3823d35cdbb29a4a20210b43d9b2d5
:1048e8003823d154974b802252009a60954b8022ee
:1048f80052009a61934b80229a60924b80229a616f
:10490800904b20229a608f4b20229a618d4b402237
:104918005a608c4b802212019a608a4b8022d20006
:104928009a60884b802292005a60864a4b23012164
:10493800d154844a4a230121d154824a492301216e
:10494800d154804a3523d35cdbb27e4a30210b43f5
:10495800d9b23523d1547b4a3523d35cdbb2794aab
:1049680003210b43d9b23523d154764a3423d35c7f
:10497800dbb2744a30210b43d9b23423d154714b82
:10498800802252059a606f4b802252059a616d4bc6
:10499800802212055a606b4b802292039a60694b01
:1049a8008022d2039a60674b802212045a60654abb
:1049b80055230121d154634a56230121d154614a18
:1049c80057230121d1545f4a3a23d35cdbb25d4ab5
:1049d80030210b43d9b23a23d1545a4a3b23d35cf2
:1049e800dbb2584a02210b43d9b23b23d154554a72
:1049f8003b23d35cdbb2534a20210b43d9b23b2380
:104a0800d154504988228023db008b504d4998228d
:104a18008023db008b504b4b802292019a60494bdc
:104a2800802252019a604749842280231b018b50bf
:104a3800444a4d230121d154424a4c230121d154e7
:104a4800404acb230121d1543e4a3623d35cdbb202
:104a58003c4a20210b43d9b23623d154394a362354
:104a6800d35cdbb2374a02210b43d9b23623d15487
:104a7800344a3523d35cdbb2324a30210b43d9b2f6
:104a88003523d1542f4988228023db038b502d49ad
:104a9800842280231b048b502a4ad6230121d15417
:104aa800284ad7230121d154264abb23d35cdbb241
:104ab800244a03210b43d9b2bb23d154214abb2337
:104ac800d35cdbb21f4a30210b43d9b2bb23d1548c
:104ad8001c4b04229a601b4a42230121d154194ad3
:104ae8003123d35cdbb2174a05210b43d9b23123fa
:104af800d154144a88230421d150124a882308210a
:104b0800d150104ac2230121d1540e4ac323012196
:104b1800d1540c4ab123d35cdbb20a4a04210b43bb
:104b2800d9b2b123d154074ab123d35cdbb2054ac9
:104b380040210b43d9b2b123d154c046bd4603e04e
:0c4b4800000400400044004180bdc04655
:020000040000fa
:104b5400f0b58db000af7860fbf72afe0300bb62ae
:104b64002023fb1800221a605a600823fb18002235
:104b74001a605a609a60da601a615a6164220221ea
:104b8400002001f0b3fa32220221012001f0aefa32
:104b9400994bdb681800fdf7e5fa031e59d0964bd4
:104ba400db682024391900221800fdf70df8031ed4
:104bb40048d03b195b78012b44d83b195b7819002a
:104bc4003b1918780823fa180b005b005b189b004c
:104bd400011c99543b191b78022b03d03b191b78f9
:104be400032b2fd120257b195b7818007b195a6879
:104bf4000826b91903005b001b189b00cb1804336b
:104c04001a607b195b781c00fbf7d2fd0100ba190e
:104c140023005b001b199b00d318083319607b1910
:104c24005b781c0075487b195b781a00744bd200c2
:104c3400d158734ae300d31804331a68cb01c3185c
:104c440014331a606c4bdb681800fdf78bfa031ef3
:104c5400a5d12f23fb1800221a70bfe02f23fb18c5
:104c64001a780823f91813005b009b189b005b5cff
:104c7400012b1bd002dc002b05d0a9e0022b28d08d
:104c8400032b62d0a4e02f22bb181b785b48ba1810
:104c940011785b4ac9008958594adb00d318043398
:104ca4001a68cb01c31814331a6091e02f22bb1881
:104cb4001b785248ba181178514ac9008958504a89
:104cc400db00d31804331a68cb01c31818331a60f5
:104cd4007ee0fbf76dfd2f243b191a780826b919dd
:104ce40013005b009b189b00cb1808331b68c11a88
:104cf4003b191a78b81913005b009b189b00c31862
:104d040004331b685b0899425fd325003b191c7868
:104d1400fbf74efd0100ba1923005b001b199b0031
:104d2400d318083319607b191b7834487a19117821
:104d3400334ac9008958324adb00d31804331a684d
:104d4400cb01c3181c331a603fe02c492f243b19b4
:104d54001a782b4bd200d358db01cb1814331a68c2
:104d64003b191b782649db00cb1804331b6813401e
:104d74002dd0fbf71dfd3b191a780825791913006e
:104d84005b009b189b00cb1808331b68c11a3b19a6
:104d94001a78781913005b009b189b00c31804331e
:104da4001b68994213d33b191b7814483a1911789c
:104db400134ac9008958124adb00d31804331a680d
:104dc400cb01c31814331a6001e0c04600e0c046aa
:104dd4002f217b181a787b1801321a702f23fb18a5
:104de4001b78012b00d839e72823fb180121180070
:104df400fbf7d6facce6c046f4110020004400418b
:044e0400a4640000a2
:020000040000fa
:104e080080b586b000aff860b960bb1d1a80172363
:104e1800fb1800221a70fb68002b00d12de1bb683b
:104e2800002b00d129e1bb681b78082b00d9e7e0eb
:104e38009a00954bd3181b689f46bb1d1a88c02340
:104e48009900002391425b41dab2fb6801210a40d4
:104e580010011a7810218a43111c021c0a431a7087
:104e6800cee0bb1d1a88c0239900002391425b4104
:104e7800dab2fb6801210a4050011a7820218a43de
:104e8800111c021c0a431a70bae0bb1d1a88c02301
:104e98009900002391425b41dab2fb6801210a4084
:104ea80090011a7840218a43111c021c0a431a7087
:104eb800a6e0bb1d1a88c0239900002391425b41dc
:104ec800dab2fb68d0011a787f210a40111c021c53
:104ed8000a431a7094e0bb1d1a88c0239900002366
:104ee80091425b41dbb21a1c7f231340dab2fb68a4
:104ef8007f210a4010005a787f218a43111c021c26
:104f08000a435a707ce0bb1d1a88c023990000230d
:104f180091425b41dbb21a1c7f231340dab2fb6873
:104f28007f210a4010009a787f218a43111c021cb5
:104f38000a439a7064e0554b1b6a082213405a4290
:104f48005341dab2fb68d0019a787f210a40111cdc
:104f5800021c0a439a7053e0fb68ba1d1288da8073
:104f6800bb1d1b88c02292009a429b415b42dab269
:104f7800fb6801210a4090001a7804218a43111c19
:104f8800021c0a431a70bb1d1a88ff210023914294
:104f98005b41dab2fb6801210a40d0001a78082187
:104fa8008a43111c021c0a431a7029e0fb68ba1dc7
:104fb80012889a80bb1d1a88ff21002391425b4109
:104fc800dab2fb6801210a4010001a7801218a43ed
:104fd800111c021c0a431a70bb1d1b88c0229200b8
:104fe8009a429b415b42dab2fb6801210a40901861
:104ff8001a7802218a43111c021c0a431a70c046ff
:10500800bb681b78072b04d8bb681b780133dab25e
:1050180000e00022bb681a70bb681b781a000123e5
:10502800134004d0194b802252039a6103e0174bb6
:10503800802252035a61bb681b781a00022313406e
:1050480004d0124b802212039a6103e00f4b802296
:1050580012035a61bb681b781a000423134004d05a
:105068000a4b8022d2029a6103e0084b8022d202c6
:105078005a611723fb1801221a701723fb181b7893
:105088001800bd4606b080bdb4630000004400416e
:020000040000fa
:1050980080b582b000af0200fb1d1a70fb1d1b78a3
:1050a8007f2b0ed8fb1d1b781a001f2313400749be
:1050b80001229a40130080228b50bff34f8fbff319
:1050c8006f8fc046bd4602b080bdc04600e100e01b
:1050d80080b582b000af0200fb1d1a70fb1d1b7863
:1050e8007f2b0ad8fb1d1b781a001f231340054984
:1050f80001229a40c0235b00ca50c046bd4602b098
:1051080080bdc04600e100e080b500af274b1a6ab9
:10511800264b10210a431a62254b264a5a80c0465c
:10512800234b5b78dbb25bb2002bf9db224b1a68ae
:10513800214b01210a431a60c0461f4bdb6901223b
:105148001340fad11c4b1d4a1a601b4b8022920255
:105158005a60c046184bdb6904221340fad1164b3b
:1051680077221a73144b1a68134b02210a431a60e8
:10517800c046114bdb6902221340fad10e4b0222c2
:105188001a750d4b04221a750b4b08221a750a4b17
:1051980001221a75084b80221a750b20fff798ff19
:1051a8000b20fff775ffc046bd4680bd00040040d8
:1051b800000c004016430000001000420c001100d3
:1051c80080b584b000af0200bb1d1a800f217b1888
:1051d80000221a700d4b9a6a7b181a70c0460b4b46
:1051e8001b7edbb21a0001231340f8d0074bba1d0f
:1051f80012889a62c046054b1b7edbb21a00022356
:105208001340f8d0c046bd4604b080bd001000422f
:1052180080b582b000affb1d00221a70144b9a6a49
:10522800fb1d1a70c046124b1b7edbb21a0001230d
:105238001340f8d00e4baa229a62c0460c4b1b7e34
:10524800dbb21a0004231340f8d0094b9a6afb1dfd
:105258001a70c046064b1b7edbb21a0002231340ad
:10526800f8d0fb1d1b789bb21800bd4602b080bd6c
:105278000010004280b582b000af78600a00fb1cc5
:105288001a707b68002b0fd007e07b685a1c7a6085
:105298001b789bb21800fff793fffb1c1b78fa1cc6
:1052a800591e1170002bf0d1c046bd4602b080bd1a
:1052b80080b582b000af78600a00fb1c1a707b686a
:1052c800002b10d008e0fff7a3ff030019007b684c
:1052d8005a1c7a60cab21a70fb1c1b78fa1c591e39
:1052e8001170002befd1c046bd4602b080bdc0464c
:020000040000fa
:1052f80080b582b000af0200fb1d1a70fb1d1b7841
:105308007f2b0ed8fb1d1b781a001f23134007495b
:1053180001229a40130080228b50bff34f8fbff3b6
:105328006f8fc046bd4602b080bdc04600e100e0b8
:1053380080b582b000af0200fb1d1a70fb1d1b7800
:105348007f2b0ad8fb1d1b781a001f231340054921
:1053580001229a40c0235b00ca50c046bd4602b035
:1053680080bdc04600e100e080b500af274b1a6a57
:10537800264b20210a431a62254b264a5a80c046ea
:10538800234b5b78dbb25bb2002bf9db224b1a684c
:10539800214b01210a431a60c0461f4bdb690122d9
:1053a8001340fad11c4b1d4a1a601b4b80229202f3
:1053b8005a60c046184bdb6904221340fad1164bd9
:1053c80077221a73144b1a68134b02210a431a6086
:1053d800c046114bdb6902221340fad10e4b022260
:1053e8001a750d4b04221a750b4b08221a750a4bb5
:1053f80001221a75084b80221a750c20fff798ffb6
:105408000c20fff775ffc046bd4680bd0004004074
:10541800000c004017430000001400420c00130069
:1054280080b584b000af0200bb1d1a800f217b1825
:1054380000221a700d4b9a6a7b181a70c0460b4be3
:105448001b7edbb21a0001231340f8d0074bba1dac
:1054580012889a62c046054b1b7edbb21a000223f3
:105468001340f8d0c046bd4604b080bd00140042c9
:1054780080b582b000affb1d00221a70144b9a6ae7
:10548800fb1d1a70c046124b1b7edbb21a000123ab
:105498001340f8d00e4baa229a62c0460c4b1b7ed2
:1054a800dbb21a0004231340f8d0094b9a6afb1d9b
:1054b8001a70c046064b1b7edbb21a00022313404b
:1054c800f8d0fb1d1b789bb21800bd4602b080bd0a
:1054d8000014004280b582b000af78600a00fb1c5f
:1054e8001a707b68002b0fd007e07b685a1c7a6023
:1054f8001b789bb21800fff793fffb1c1b78fa1c64
:10550800591e1170002bf0d1c046bd4602b080bdb7
:1055180080b582b000af78600a00fb1c1a707b6807
:10552800002b10d008e0fff7a3ff030019007b68e9
:105538005a1c7a60cab21a70fb1c1b78fa1c591ed6
:105548001170002befd1c046bd4602b080bdc046e9
:020000040000fa
:1055580080b582b000af0200fb1d1a70fb1d1b78de
:105568007f2b0ed8fb1d1b781a001f2313400749f9
:1055780001229a40130080228b50bff34f8fbff354
:105588006f8fc046bd4602b080bdc04600e100e056
:1055980080b582b000af0200fb1d1a70fb1d1b789e
:1055a8007f2b0ad8fb1d1b781a001f2313400549bf
:1055b80001229a40c0235b00ca50c046bd4602b0d3
:1055c80080bdc04600e100e080b500af274b1a6af5
:1055d800264b40210a431a62254b264a5a80c04668
:1055e800234b5b78dbb25bb2002bf9db224b1a68ea
:1055f800214b01210a431a60c0461f4bdb69012277
:105608001340fad11c4b1d4a1a601b4b8022920290
:105618005a60c046184bdb6904221340fad1164b76
:1056280077221a73144b1a68134b02210a431a6023
:10563800c046114bdb6902221340fad10e4b0222fd
:105648001a750d4b04221a750b4b08221a750a4b52
:1056580001221a75084b80221a750d20fff798ff52
:105668000d20fff775ffc046bd4680bd0004004011
:10567800000c004018430000001800420c003000e5
:1056880080b584b000af0200bb1d1a800f217b18c3
:1056980000221a700d4b9a6a7b181a70c0460b4b81
:1056a8001b7edbb21a0001231340f8d0074bba1d4a
:1056b80012889a62c046054b1b7edbb21a00022391
:1056c8001340f8d0c046bd4604b080bd0018004263
:1056d80080b582b000affb1d00221a70144b9a6a85
:1056e800fb1d1a70c046124b1b7edbb21a00012349
:1056f8001340f8d00e4baa229a62c0460c4b1b7e70
:10570800dbb21a0004231340f8d0094b9a6afb1d38
:105718001a70c046064b1b7edbb21a0002231340e8
:10572800f8d0fb1d1b789bb21800bd4602b080bda7
:105738000018004280b582b000af78600a00fb1cf8
:105748001a707b68002b0fd007e07b685a1c7a60c0
:105758001b789bb21800fff793fffb1c1b78fa1c01
:10576800591e1170002bf0d1c046bd4602b080bd55
:1057780080b582b000af78600a00fb1c1a707b68a5
:10578800002b10d008e0fff7a3ff030019007b6887
:105798005a1c7a60cab21a70fb1c1b78fa1c591e74
:1057a8001170002befd1c046bd4602b080bdc04687
:020000040000fa
:0857b80049444c450000c046c5
:020000040000fa
:1057c00080b584b000aff860b9607a60fb68043bd4
:1057d000fb60fb68802252041a60fb68043bfb609c
:1057e000ba68fb681a60fb68043bfb60084afb6808
:1057f0001a60fb68143bfb607a68fb681a60fb6800
:10580000203bfb60fb681800bd4604b080bdc0466d
:105810001558000080b582b000af00237b60074bb5
:105820001b68013301d072b6fee772b6c0467b68d2
:10583000002bfcd0c046bd4602b080bd4412002003
:1058400080b500afc046bd4680bd094a13681868e0
:10585000203080f30988022080f31488bff36f8f13
:105860003fbcae4608bc04bc62b61847c046c04642
:105870001c100020c04680b500af0e4b1a680d4bbf
:10588000ff2109040a431a600a4b1a68094bff21d9
:1058900009060a431a6000f0a7f8074b00221a60b5
:1058a000fff7d3fffbf7faf8fff7b4ff0023180068
:1058b000bd4680bd20ed00e04412002080b500af61
:1058c000054b1a68fa239b009a4201d072b6fee794
:1058d000c046bd4680bdc0464412002080b500af22
:1058e000054b802252051a60bff34f8fbff36f8fb5
:1058f000c046bd4680bdc04604ed00e080b500afa7
:1059000072b6064b1b685a1c044b1a60bff34f8fcc
:10591000bff36f8fc046bd4680bdc0464412002015
:1059200080b500af094b1b68002b01d172b6fee7b2
:10593000064b1b685a1e054b1a60044b1b68002b54
:1059400000d162b6c046bd4680bdc04644120020ac
:10595000eff3108072b67047c046180080f31088cd
:105960007047c046eff30980114b1a682038106069
:10597000f0c044464d4656465f46f0c008b572b684
:10598000fbf78cf862b60cbc116808681030f0c8e0
:10599000a046a946b246bb4680f309882038f0c825
:1059a0001847c046c046c046c046c046c046c0466e
:1059b0001c100020c04680b582b000affff7c8ffc2
:1059c00003007b60faf75cff031e03d0054b8022c7
:1059d00052051a607b681800fff7c0ffc046bd463d
:1059e00002b080bd04ed00e080b500af074b00229f
:1059f0001a60074b00221a60064b074a1a60034bd5
:105a000007221a60c046bd4680bdc04610e000e0d7
:0c5a100018e000e014e000e07fbb0000a4
:020000040000fa
:105a1c0080b582b000affb1d00221a70bb1d0022a6
:105a2c001a703c4b1a6a3b4b802149020a431a629a
:105a3c00394b3a4a5a80c046374b5b78dbb25bb283
:105a4c00002bf9db364b1b78dbb2354a01210b43bb
